:100000000C941A030C9442030C9442030C94F00BCE
:100010000C94F00B0C94F00B0C9442030C944203E0
:100020000C9442030C94B20B0C9442030C94F71200
:100030000C9442030C9442030C9442030C9442032C
:100040000C948A070C9442030C94FA070C94D4077E
:100050000C9442030C9442030C9442030C9442030C
:100060000C9442030C94420300000000240027007B
:100070002A000000000023002600290000000008DC
:10008000000201000003040700000000000000005F
:1000900000000000003E5B4F5B3E3E6B4F6B3E1C22
:1000A0003E7C3E1C183C7E3C181C577D571C1C5E39
:1000B0007F5E1C00183C1800FFE7C3E7FF00182410
:1000C0001800FFE7DBE7FF30483A060E26297929BA
:1000D00026407F050507407F05253F5A3CE73C5AEF
:1000E0007F3E1C1C08081C1C3E7F14227F22145FCC
:1000F0005F005F5F06097F017F006689956A606027
:1001000060606094A2FFA29408047E040810207E20
:10011000201008082A1C08081C2A08081E101010A5
:10012000100C1E0C1E0C30383E3830060E3E0E06EB
:10013000000000000000005F00000007000700143E
:100140007F147F14242A7F2A1223130864623649FD
:100150005620500008070300001C224100004122E5
:100160001C002A1C7F1C2A08083E080800807030EA
:100170000008080808080000606000201008040259
:100180003E5149453E00427F40007249494946215F
:1001900041494D331814127F1027454545393C4AD3
:1001A00049493141211109073649494936464949EA
:1001B000291E000014000000403400000008142232
:1001C00041141414141400412214080201590906A0
:1001D0003E415D594E7C1211127C7F494949363EA1
:1001E000414141227F4141413E7F494949417F0987
:1001F0000909013E414151737F0808087F00417F92
:1002000041002040413F017F081422417F4040408F
:10021000407F021C027F7F0408107F3E4141413E27
:100220007F090909063E4151215E7F0919294626A9
:100230004949493203017F01033F4040403F1F20AD
:1002400040201F3F4038403F631408146303047884
:1002500004036159494D43007F41414102040810A4
:1002600020004141417F04020102044040404040DF
:10027000000307080020545478407F28444438384D
:1002800044444428384444287F38545454180008BF
:100290007E090218A4A49C787F0804047800447D99
:1002A00040002040403D007F1028440000417F4036
:1002B000007C047804787C0804047838444444388A
:1002C000FC1824241818242418FC7C08040408486A
:1002D0005454542404043F44243C4040207C1C20BB
:1002E00040201C3C4030403C44281028444C909016
:1002F000907C4464544C4400083641000000770070
:1003000000004136080002010204023C2623263C7C
:100310001EA1A161123A4040207A38545455592107
:1003200055557941225454784221555478402054EF
:100330005579400C1E52721239555555593954543D
:10034000545939555454580000457C410002457DAC
:10035000420001457C407D1211127DF0282528F0D5
:100360007C545545002054547C547C0A097F493202
:10037000494949323A4444443A324A4848303A4179
:1003800041217A3A42402078009DA0A07D3D424222
:10039000423D3D4040403D3C24FF2424487E4943AB
:1003A000662B2FFC2F2BFF0929F620C0887E09031E
:1003B00020545479410000447D413048484A323845
:1003C0004040227A007A0A0A727D0D19317D262971
:1003D000292F28262929292630484D402038080869
:1003E000080808080808382F10C8ACBA2F1028349D
:1003F000FA00007B000008142A142222142A140890
:100400005500550055AA55AA55AAFF55FF55FF009E
:100410000000FF00101010FF00141414FF00101053
:10042000FF00FF1010F010F0141414FC001414F767
:1004300000FF0000FF00FF1414F404FC1414171054
:100440001F10101F101F1414141F00101010F000A4
:100450000000001F101010101F10101010F01000DE
:100460000000FF101010101010101010FF100000EE
:1004700000FF140000FF00FF00001F10170000FC29
:1004800004F414141710171414F404F40000FF00FB
:10049000F714141414141414F700F7141414171484
:1004A00010101F101F141414F4141010F010F0008A
:1004B000001F101F0000001F14000000FC140000AB
:1004C000F010F01010FF10FF141414FF141010108F
:1004D0001F00000000F010FFFFFFFFFFF0F0F0F042
:1004E000F0FFFFFF0000000000FFFF0F0F0F0F0FD6
:1004F0003844443844FC4A4A4A347E020206060222
:100500007E027E0263554941633844443C04407E88
:10051000201E2006027E020299A5E7A5991C2A4901
:100520002A1C4C7201724C304A4D4D30304878488C
:1005300030BC625A463D3E494949007E0101017E78
:100540002A2A2A2A2A44445F444440514A444040CB
:10055000444A51400000FF0103E080FF000008080A
:100560006B6B083612362436060F090F060000188A
:10057000180000001010003040FF0101001F0101B1
:100580001E00191D1712003C3C3C3C0000000000FE
:10059000EF03038002CF0300C130ED046403128136
:1005A000E803850078CB05392C003402F70120EAF6
:1005B000020000C00123C10110C5023E28C7018608
:1005C0003601483701003A0155B1020018B6030858
:1005D0008227F20100260101E00F0F312B0C0E08DB
:1005E0004EF1370710030E0900E10F000E1403113E
:1005F0000731C148080F0C31360F118029800001E6
:1006000002040810204080010204081020010204A6
:1006100008102000000000250028002B000404041E
:10062000040404040402020202020203030303039B
:1006300003006D2111241FBECFEFD8E0DEBFCDBF78
:1006400012E0A0E0B1E0EAE4FCE402C005900D9203
:10065000AC35B107D9F723E0ACE5B2E001C01D929B
:10066000A23EB207E1F713E0CAE1D3E004C021974C
:10067000FE010E94F724C931D107C9F70E94AC1EC0
:100680000C9423260C940000833081F028F48130F0
:1006900099F08230A1F008958730A9F08830B9F040
:1006A0008430D1F4809180008F7D03C080918000E0
:1006B0008F7780938000089584B58F7702C084B5CA
:1006C0008F7D84BD08958091B0008F7703C08091A5
:1006D000B0008F7D8093B00008953FB7F89480916B
:1006E000C3029091C402A091C502B091C60226B582
:1006F000A89B05C02F3F19F00196A11DB11D3FBF5A
:10070000BA2FA92F982F8827820F911DA11DB11DE7
:10071000BC01CD0142E0660F771F881F991F4A95E3
:10072000D1F70895CF92DF92EF92FF920F931F932C
:10073000CF93DF936C017A018B01C0E0D0E0CE153E
:10074000DF0581F0D8016D918D01D601ED91FC910D
:100750000190F081E02DC6010995892B11F02196B9
:10076000EECF7E01C701DF91CF911F910F91FF90D6
:10077000EF90DF90CF900895FC01538D448D252F8D
:1007800030E0842F90E0821B930B541710F0CF962B
:10079000089501970895FC01918D828D981761F05D
:1007A000828DDF01A80FB11D5D968C91928D9F5FA8
:1007B0009F73928F90E008958FEF9FEF0895FC0153
:1007C000918D828D981731F0828DE80FF11D858D06
:1007D00090E008958FEF9FEF08950E941E268BED05
:1007E00092E00E94B51521E0892B09F420E0822FC8
:1007F0000895EF92FF920F931F93CF93DF93EC0135
:1008000081E0888F9B8D8C8D981305C0E889F989CC
:10081000808185FD26C0F62E0B8D10E00F5F1F4FE7
:100820000F731127E02E8C8DE8120CC00FB607FC59
:10083000FACFE889F989808185FFF5CFCE010E9442
:10084000FD17F1CF8B8DFE01E80FF11DE35AFF4F2D
:10085000F0829FB7F8940B8FEA89FB8980818062D0
:100860000AC09FB7F894EE89FF896083E889F98907
:1008700080818370806480839FBF81E090E0DF91FE
:10088000CF911F910F91FF90EF900895CF93DF9339
:10089000EC01888D8823C9F0EA89FB89808185FD78
:1008A00005C0A889B9898C9186FD0FC00FB607FCD9
:1008B000F5CF808185FFF2CFA889B9898C9185FF1A
:1008C000EDCFCE010E94FD17E7CFDF91CF910895C4
:1008D0002F923F924F925F926F927F928F929F9250
:1008E000AF92BF92CF92DF92EF92FF920F931F933E
:1008F000CF93DF93CDB7DEB76B970FB6F894DEBF1B
:100900000FBECDBF9B8F8A8F1B014A01D22E198744
:1009100008873701A982DC0159962D913C915A979D
:100920002115310509F0FFC018968D919C911997FA
:10093000681779070CF0E7C11A968D919C911B9767
:10094000481759070CF0DFC1EC2DF0E0FB83EA8378
:100950009B0146E0C49E200D311D11243D872C874C
:10096000121613060CF0CFC16A2D70E07B876A87E0
:1009700083E0660F771F8A95E1F77F876E87CB014B
:10098000880D991D181619060CF0BDC158968C914A
:10099000811104C08FEA8D1508F4D394AA8DBB8D04
:1009A000ED91FC9111970284F385E02DCD0109951D
:1009B000B5E0DB9EC0011124EC2DF0E0F98BE88B53
:1009C00091012B5F3F4F3B8B2A8B3D822C82210173
:1009D000AC01421953095D8B4C8B7981672F70E014
:1009E0007F8B6E8BC4010896998F888FEC89FD8967
:1009F000E40DF51DE057FF4FD49054019F828E8285
:100A0000D0FE16C0AA8DBB8DED91FC91B1E0CB124A
:100A100009C02981213031F40484F585E02D288531
:100A2000398519C00684F785E02DE884F9841DC056
:100A3000488559854615570519F1AA8DBB8DED914D
:100A4000FC91B1E0CB120DC02981213051F4048416
:100A5000F585E02D9301A501B2018A8D9B8D099545
:100A60000FC00684F785E02D73010A851B852A8156
:100A70003B814E815F816C817D818A8D9B8D099543
:100A8000D6943FEFA31AB30A4E815F816E897F89A6
:100A9000460F571F5F834E83888D998DA816B90620
:100AA00009F0AECF9FEF491A590AAC81BD81E889A0
:100AB000F989AE0FBF1FBD83AC832A893B894216DB
:100AC000530609F093CF488559854615570509F413
:100AD000F8C0AA8DBB8DED91FC91B1E0CB1211C095
:100AE0002981213071F4B1016B5F7F4F0088F1895A
:100AF000E02D830128E030E0A4018A8D9B8D0995CB
:100B0000E0C06C857D854A815B81641B750B068422
:100B1000F785E02D73010E851F859A01A4018A8D4A
:100B20009B8D0995CEC0F9013496E491DE1AF90146
:100B3000329685919491B7E0DB9E800D911D112432
:100B4000F901259134913B8B2A8BFC01259134913D
:100B50005901FC0132965490319634913C8732967B
:100B600074903196149141E04C1518F0598152302F
:100B700068F0672D072C000C770B7D836C83812F29
:100B8000012E000C990B9B838A8304C01B821A825E
:100B90001D821C82AA8DBB8DED91FC911197028460
:100BA000F385E02DCD010995412CD12C612CF981E3
:100BB000EF2FF0E0FF83EE832C2D30E03B872A8778
:100BC000A401410F511D17FD5A955F8B4E8BB1014A
:100BD000670D711D77FC7A95798F688F7C85671614
:100BE00008F06FC0262D30E04A815B81420F531F11
:100BF000AE81BF81A49FC001A59F900DB49F900DB1
:100C00001124F401E80FF91FF98BE88B842D712C66
:100C10004E895F89420F531F5D8B4C8B751408F012
:100C20004DC051E0580F5E87877041F4C5010196B1
:100C3000EA89FB89EA0DFB1DD4905C01D7FE3AC01E
:100C400061E0C61216C07981713099F4AA8DBB8D0E
:100C5000ED91FC9111970484F585E02D2885398567
:100C60004C895D89688D798D670D711DCD01099560
:100C700021C08C819D81870D911DEA85FB858E9F0A
:100C8000B0018F9F700D9E9F700D1124620D731D1A
:100C9000AA8DBB8DED91FC9111970684F785E02D0F
:100CA000E884F9840E811F812A853B85488959890A
:100CB000CD010995DD0C73948E85B0CF450C6394FE
:100CC0008DCFAA8DBB8DED91FC9111970688F78988
:100CD000E02DCD016B960FB6F894DEBF0FBECDBFF1
:100CE000DF91CF911F910F91FF90EF90DF90CF9008
:100CF000BF90AF909F908F907F906F905F904F903C
:100D00003F902F9009946B960FB6F894DEBF0FBEFC
:100D1000CDBFDF91CF911F910F91FF90EF90DF90AA
:100D2000CF90BF90AF909F908F907F906F905F908B
:100D30004F903F902F900895CF93DF93282F30E06E
:100D4000F901E458FF4F8491F901E150FA4FD49131
:100D5000F901E35EF94FC491CC2391F081110E9417
:100D60004403EC2FF0E0EE0FFF1FEE58FF4FA5916C
:100D7000B491EC91ED2381E090E021F480E002C099
:100D800080E090E0DF91CF9108951F93CF93DF93A0
:100D9000282F30E0F901E458FF4F8491F901E15028
:100DA000FA4FD491F901E35EF94FC491CC23C1F01D
:100DB000162F81110E944403EC2FF0E0EE0FFF1F6D
:100DC000ED5EF94FA591B4919FB7F894111104C04D
:100DD0008C91D095D82302C0EC91DE2BDC939FBF81
:100DE000DF91CF911F9108950F931F93CF93DF93BE
:100DF000182F062FCDE8D3E060E08A810E94C50657
:100E000061E088810E94C506812F880F80680E945A
:100E10005E1B802F0E945E1B60E08881DF91CF9176
:100E20001F910F910C94C506CF93DF9390E0FC01C6
:100E3000E150FA4F2491FC01E35EF94F849188233D
:100E400061F190E0880F991FFC01E859FF4FC591AF
:100E5000D491FC01ED5EF94FA591B491611109C0E7
:100E60009FB7F8948881209582238883EC912E2364
:100E70000BC0623061F49FB7F8948881322F3095AF
:100E800083238883EC912E2B2C939FBF06C08FB7B2
:100E9000F894E8812E2B28838FBFDF91CF9108959E
:100EA0008F929F92AF92BF92CF92DF92EF92FF927A
:100EB0006B017C010E946D034B015C01C114D104E4
:100EC000E104F104F1F00E946D03DC01CB0188190B
:100ED0009909AA09BB09883E9340A105B10570F3A1
:100EE00021E0C21AD108E108F10888EE880E83E0FB
:100EF000981EA11CB11CC114D104E104F10419F71E
:100F0000DDCFFF90EF90DF90CF90BF90AF909F909C
:100F10008F9008951F920F920FB60F9211242F9366
:100F20003F938F939F93AF93BF938091BF02909114
:100F3000C002A091C102B091C2023091BE0223E072
:100F4000230F2D3720F40196A11DB11D05C026E801
:100F5000230F0296A11DB11D2093BE028093BF02F4
:100F60009093C002A093C102B093C2028091C302C9
:100F70009091C402A091C502B091C6020196A11D34
:100F8000B11D8093C3029093C402A093C502B09395
:100F9000C602BF91AF919F918F913F912F910F907A
:100FA0000FBE0F901F9018951F920F920FB60F92C1
:100FB00011242F933F934F935F936F937F938F935E
:100FC0009F93AF93BF93EF93FF938BED92E00E94BB
:100FD000FD17FF91EF91BF91AF919F918F917F91FD
:100FE0006F915F914F913F912F910F900FBE0F9096
:100FF0001F9018951F920F920FB60F9211242F93E6
:101000008F939F93EF93FF93E091EB02F091EC02AB
:101010008081E091F102F091F20282FD12C0908194
:101020008091F4028F5F8F732091F502821751F047
:10103000E091F402F0E0E552FD4F958F8093F402C9
:1010400001C08081FF91EF919F918F912F910F901F
:101050000FBE0F901F9018950895FC016370668B6A
:101060008481958126813781613039F0633029F0A0
:1010700091878087338722870895318720879387D8
:10108000828708956F927F928F929F92AF92BF92C4
:10109000CF92DF92EF92FF920F931F93CF93DF9344
:1010A000EC014B015A0169013801E881F9810284A0
:1010B000F385E02D0995E881F9810288F389E02D17
:1010C00087019601A501B401CE010995A501460D40
:1010D000571D41505109E881F9810288F389E02DBB
:1010E0009601B401CE010995E881F9810088F18962
:1010F000E02D9301A501B401CE010995C80CD91CBE
:10110000B60161507109E881F9810088F189E02D0B
:101110009301A501CE010995E881F9810688F78937
:10112000E02DCE01DF91CF911F910F91FF90EF90B5
:10113000DF90CF90BF90AF909F908F907F906F90F7
:1011400009948F929F92AF92BF92CF92DF92EF92CB
:10115000FF920F931F93CF93DF934C016B015A01C2
:10116000E901DC01ED91FC916217730781F404172A
:10117000150724F48B2D5801042F182F0A191B0969
:1011800098012F5F3F4F048CF58DE02D12C0401762
:10119000510709F52617370724F48D2D6901C62F4D
:1011A000D82F9E012C193D092F5F3F4F068CF78DDC
:1011B000E02D8701A501B601C4010995DF91CF910A
:1011C0001F910F91FF90EF90DF90CF90BF90AF9065
:1011D0009F908F9008950284F385E02D0995D401A6
:1011E000ED91FC910488F589E02D9E01A501B601E1
:1011F000C4010995D401ED91FC910688F789E02D91
:10120000C401DF91CF911F910F91FF90EF90DF907C
:10121000CF90BF90AF909F908F900994EF92FF92E4
:101220000F931F93DC011A960D911C911B97189632
:101230002D913C911997ED91FC9100A0F1A1E02D29
:101240007B0140E050E060E070E009951F910F9154
:10125000FF90EF9008954F925F926F927F928F92DE
:101260009F92AF92BF92CF92DF92EF92FF920F9335
:101270001F93CF93DF936C012B015A013901480171
:10128000DC01ED91FC910284F385E02D0995E201EA
:10129000640C751CD601ED91FC91C615D7055CF464
:1012A0000088F189E02D87019401A501BE01C601E6
:1012B00009952196EFCF0688F789E02DC601DF91C9
:1012C000CF911F910F91FF90EF90DF90CF90BF9043
:1012D000AF909F908F907F906F905F904F90099408
:1012E0008F929F92AF92BF92CF92DF92EF92FF9236
:1012F0000F931F93CF93DF93EC015B014A016901C8
:10130000E881F9810284F385E02D099595012C0D82
:101310003D1D21503109E881F9810488F589E02DCE
:1013200078018401A401B501CE010995E881F98114
:101330000688F789E02DCE01DF91CF911F910F91A3
:10134000FF90EF90DF90CF90BF90AF909F908F90E5
:1013500009948F929F92AF92BF92CF92DF92EF92B9
:10136000FF920F931F93CF93DF93EC015B014A0130
:1013700069017801E881F9810284F385E02D0995FE
:10138000C80CD91C860101501109E881F981048833
:10139000F589E02D9501A401B501CE010995E881FB
:1013A000F9810688F789E02DCE01DF91CF911F9159
:1013B0000F91FF90EF90DF90CF90BF90AF909F90F4
:1013C0008F9009940895EF92FF920F931F93DC0181
:1013D000ED91FC9100A0F1A1E02D09951F910F91D5
:1013E000FF90EF9008950F931F93DC01ED91FC9116
:1013F000068CF78DE02D09951F910F9108950F939D
:101400001F93DC01ED91FC91048CF58DE02D099585
:101410001F910F910895DC01ED91FC910084F185FD
:10142000E02D09942F923F924F925F926F927F929C
:101430008F929F92AF92BF92CF92DF92EF92FF92E4
:101440000F931F93CF93DF9300D000D000D0CDB780
:10145000DEB72C017E836D836A015901C801FC82CD
:10146000EB824801841A950A97FE03C091948194F7
:10147000910835012D813E81621A730A77FE03C0FF
:10148000719461947108681479045CF43A2D2B2DE1
:101490005C01832F922F3D812E81DE82CD82C32E6F
:1014A000D22EAD81BE81AA16BB065CF43C2D2D2D3B
:1014B0006C01832F922F3D812E81BE82AD82A32E9F
:1014C000B22E85012D813E81021B130B1C012C18AD
:1014D0003D0837FE03C0319421943108780117FF8D
:1014E00003C03FEFE31AF30AF594E794C816D90650
:1014F0002CF08FEF9FEF9A83898304C0A1E0B0E0C6
:10150000BA83A9832D813E81A216B30624F1D201AC
:10151000ED91FC910484F585E02D2B813C816814CC
:10152000790424F44D815E81B60103C0A6016D816A
:101530007E81C2010995E218F308F7FE06C02981F1
:101540003A81C20ED31EE00EF11E8D819E8101965E
:101550009E838D83D7CF26960FB6F894DEBF0FBE3D
:10156000CDBFDF91CF911F910F91FF90EF90DF9052
:10157000CF90BF90AF909F908F907F906F905F9033
:101580004F903F902F900895089580E090E0089547
:10159000CF93DF93EC010E9490198FA987FD06C0BD
:1015A000EB8DFC8D90818AA989238083DF91CF9177
:1015B00008958F929F92AF92CF92EF92FF920F93E6
:1015C0001F93CF93DF93EC01262F898D9A8D00977F
:1015D00009F042C06A3059F41D861C862D898E851B
:1015E0009F8538E0239F800D911D112443C06D30ED
:1015F00009F4AAC08F898823C9F03C898C859D8510
:1016000046E0349F800D911D112448855985481767
:10161000590764F41D861C863D898E859F8548E0A8
:10162000349F800D911D11249F878E87EA88FB8847
:10163000088919894E855F856C857D85AD88CC8844
:10164000CE010E9468042C898C859D8536E0239FFD
:10165000800D911D11243EC06A3079F41D861C86D0
:101660002D89FC013696E4918E859F852E9F800DF5
:10167000911D11249F878E8767C06D3009F464C067
:10168000FC0134963491631708F45EC03196E491FE
:10169000E61708F459C0462F431B342FFC0132963D
:1016A0008590949047E0349F800C911C1124F401A4
:1016B000329634913196E491332311F0E1110DC04B
:1016C000F4013496E4912C898C859D85E29F800DF0
:1016D000911D11249D878C8737C0F4013596449164
:1016E0005F89552319F15C89E32FF0E0E40FF11DC8
:1016F00047FDFA955E9FB0015F9F700D11244C85E8
:101700005D85460F571F688579856417750774F4E2
:101710001D861C863D89FC013696E4918E859F8549
:101720003E9F800D911D11249F878E87EA88FB883C
:10173000088919894E855F856C857D85AD88CC8843
:10174000CE010E946804BCCF81E090E0DF91CF9190
:101750001F910F91FF90EF90CF90AF909F908F903F
:10176000089508951F920F920FB60F9211248F9330
:101770008091CC028F5F8093CC028091CB028091CC
:10178000CC02811105C08091CB021092B20022C020
:101790008091CB028091CC028823E1F08091CB0232
:1017A0008091CB028F5F8093CB021092CC0210927B
:1017B000B2008091CB02882339F08091CB0289302E
:1017C00018F48091CB0206C08091CB02893010F0D2
:1017D0001092CB028F910F900FBE0F901F90189513
:1017E0001F920F920FB60F9211240F900FBE0F9001
:1017F0001F901895CF93DF9380916302873910F083
:101800001092630280EE9FEF9093AB038093AA0344
:101810009093A9038093A8038EE690E09093A5038C
:101820008093A403CBE4D0E0D093A703C093A60396
:1018300085E08093AC038093AD036091630270E018
:1018400080E090E04AE00E944E1C8EEB90E0909386
:10185000A5038093A403D093A703C093A6038EE5AA
:1018600091E0DF91CF910C94291CCF93DF93E8E7AF
:10187000F2E0A6E6B2E080819181489710F01182F3
:1018800010828D919C911197CC9718F011961C9213
:101890001E923296129682E0E838F80761F7C0EEA1
:1018A000DFEFD093AB03C093AA03D093A903C093F7
:1018B000A8038AE590E09093A5038093A40387E3AF
:1018C00090E09093A7038093A60382E08093AC03FB
:1018D0008093AD0381E691E00E94291C8091C802AB
:1018E00081110FC08091C702811113C08FEF9FEF4C
:1018F0009093AB038093AA039093A9038093A803CA
:1019000008C0D093AB03C093AA03D093A903C0939C
:10191000A80380917802909179020E948F1CC0EEFA
:10192000DFEFD093AB03C093AA03D093A903C09376
:10193000A80387E691E00E94291C8091C8028111CA
:101940000FC08091C702813099F48FEF9FEF909381
:10195000AB038093AA039093A9038093A80308C0C4
:10196000D093AB03C093AA03D093A903C093A80359
:1019700080916602909167020E948F1CC0EEDFEF9B
:10198000D093AB03C093AA03D093A903C093A80339
:101990008AE590E09093A5038093A4038BE490E004
:1019A0009093A7038093A60382E08093AC03809377
:1019B000AD0389E691E00E94291C8091C802813024
:1019C00079F48091C702811113C08FEF9FEF90933C
:1019D000AB038093AA039093A9038093A80308C044
:1019E000D093AB03C093AA03D093A903C093A803D9
:1019F00080917A0290917B020E948F1CC0EEDFEFF3
:101A0000D093AB03C093AA03D093A903C093A803B8
:101A100087E691E00E94291C8091C802813079F408
:101A20008091C702813099F48FEF9FEF9093AB03C1
:101A30008093AA039093A9038093A80308C0D0932E
:101A4000AB03C093AA03D093A903C093A8038091CA
:101A50006802909169020E948F1CC0EEDFEFD09364
:101A6000AB03C093AA03D093A903C093A8038AE54C
:101A700090E09093A5038093A4038FE590E090936A
:101A8000A7038093A60382E08093AC038093AD0309
:101A90008FE691E00E94291C8091C802823079F47F
:101AA0008091C702811113C08FEF9FEF9093AB031A
:101AB0008093AA039093A9038093A80308C0D093AE
:101AC000AB03C093AA03D093A903C093A80380914A
:101AD0007C0290917D020E948F1CC0EEDFEFD093BC
:101AE000AB03C093AA03D093A903C093A80387E6CE
:101AF00091E00E94291C8091C802823079F4809183
:101B0000C702813099F48FEF9FEF9093AB038093DE
:101B1000AA039093A9038093A80308C0D093AB03B2
:101B2000C093AA03D093A903C093A80380916A022B
:101B300090916B020E948F1CC0EEDFEFD093AB033D
:101B4000C093AA03D093A903C093A8038AE590E0A9
:101B50009093A5038093A40383E790E09093A70359
:101B60008093A60382E08093AC038093AD0385E766
:101B700091E00E94291C8091C802833079F4809101
:101B8000C702811113C08FEF9FEF9093AB03809337
:101B9000AA039093A9038093A80308C0D093AB0332
:101BA000C093AA03D093A903C093A80380917E0297
:101BB00090917F020E948F1CC0EEDFEFD093AB03A9
:101BC000C093AA03D093A903C093A80387E691E02A
:101BD0000E94291C8091C802833079F48091C70249
:101BE000813099F48FEF9FEF9093AB038093AA031A
:101BF0009093A9038093A80308C0D093AB03C0932C
:101C0000AA03D093A903C093A80380916C0290917A
:101C10006D020E948F1CC0EEDFEFD093AB03C09328
:101C2000AA03D093A903C093A8038AE590E09093F8
:101C3000A5038093A40387E890E09093A703809383
:101C4000A60382E08093AC038093AD038BE791E021
:101C50000E94291C8091C802843079F48091C702C7
:101C6000811113C08FEF9FEF9093AB038093AA0372
:101C70009093A9038093A80308C0D093AB03C093AB
:101C8000AA03D093A903C093A803809180029091E6
:101C900081020E948F1CC0EEDFEFD093AB03C09394
:101CA000AA03D093A903C093A80387E691E00E94FA
:101CB000291C8091C802843079F48091C702813058
:101CC00099F48FEF9FEF9093AB038093AA039093C7
:101CD000A9038093A80308C0D093AB03C093AA03C1
:101CE000D093A903C093A80380916E0290916F02D4
:101CF0000E948F1CC0EEDFEFD093AB03C093AA030A
:101D0000D093A903C093A8038AE590E09093A5031C
:101D10008093A4038BE990E09093A7038093A6039C
:101D200082E08093AC038093AD0381E891E00E9450
:101D3000291C8091C802853079F48091C7028111F5
:101D400013C08FEF9FEF9093AB038093AA03909300
:101D5000A9038093A80308C0D093AB03C093AA0340
:101D6000D093A903C093A80380918202909183022B
:101D70000E948F1CC0EEDFEFD093AB03C093AA0389
:101D8000D093A903C093A80387E691E00E94291C81
:101D90008091C802853079F48091C702813099F42E
:101DA0008FEF9FEF9093AB038093AA039093A903C7
:101DB0008093A80308C0D093AB03C093AA03D09329
:101DC000A903C093A80380917002909171020E94B0
:101DD0008F1CC0EEDFEFD093AB03C093AA03D09368
:101DE000A903C093A8038AE590E09093A50380938C
:101DF000A4038FEA90E09093A7038093A60382E068
:101E00008093AC038093AD0387E891E00E94291C86
:101E10008091C802863079F48091C702811113C085
:101E20008FEF9FEF9093AB038093AA039093A90346
:101E30008093A80308C0D093AB03C093AA03D093A8
:101E4000A903C093A80380918402909185020E9407
:101E50008F1CC0EEDFEFD093AB03C093AA03D093E7
:101E6000A903C093A80387E691E00E94291C8091F2
:101E7000C802863079F48091C702813099F48FEFDF
:101E80009FEF9093AB038093AA039093A903809351
:101E9000A80308C0D093AB03C093AA03D093A903AF
:101EA000C093A80380917202909173020E948F1CCC
:101EB000C0EEDFEFD093AB03C093AA03D093A90386
:101EC000C093A8038AE590E09093A5038093A403B0
:101ED00083EC90E09093A7038093A60382E0809325
:101EE000AC038093AD038DE891E00E94291C8091A2
:101EF000C802873079F48091C702811113C08FEF37
:101F00009FEF9093AB038093AA039093A9038093D0
:101F1000A80308C0D093AB03C093AA03D093A9032E
:101F2000C093A80380918602909187020E948F1C23
:101F3000C0EEDFEFD093AB03C093AA03D093A90305
:101F4000C093A80387E691E00E94291C8091C802F3
:101F5000873079F48091C702813099F48FEF9FEF39
:101F60009093AB038093AA039093A9038093A80353
:101F700008C0D093AB03C093AA03D093A903C09326
:101F8000A8038091740290917502DF91CF910C9417
:101F90008F1C0F931F93CF93C82F811103C08FEF16
:101FA0009FEF02C080EE9FEF9093AB038093AA0354
:101FB0009093A9038093A80306E410E01093A5036F
:101FC0000093A4038AE590E09093A7038093A6036F
:101FD00082E08093AC038093AD0383E991E00E949B
:101FE000291C1093A5030093A40388E790E0909325
:101FF000A7038093A603C13019F48FEF9FEF02C0AF
:1020000080EE9FEF9093AB038093AA039093A90374
:102010008093A80382E08093AC038093AD0381EAB0
:1020200091E00E94291C86E490E09093A5038093A0
:10203000A40386E990E09093A7038093A603C2309F
:1020400019F48FEF9FEF02C080EE9FEF9093AB03E8
:102050008093AA039093A9038093A80382E08093BE
:10206000AC038093AD0381EB91E00E94291C86E4D0
:1020700090E09093A5038093A40384EB90E0909369
:10208000A7038093A603C33019F48FEF9FEF02C01C
:1020900080EE9FEF9093AB038093AA039093A903E4
:1020A0008093A80382E08093AC038093AD038BEB15
:1020B00091E0CF911F910F910C94291CEF92FF9208
:1020C0000F931F9360E070E088E993E00E940E098F
:1020D000EE24EA94FE2C00EF10E020E431E040E032
:1020E00050E060E070E088E993E00E9442080EEE64
:1020F00010E02EE331E041E050E061E070E088E97B
:1021000093E00E9442080CEE10E02CE331E042E044
:1021100050E062E070E088E993E00E9442081F917D
:102120000F91FF90EF900895EF92FF920F931F93FE
:1021300081E0809389020E945E10EE24EA94FE2CD6
:1021400008EC10E024E031E044E150E06EE170E0A2
:1021500088E993E00E944208E8E9F3E08AE590E02C
:102160009587848788E290E0978786878FEF9FEF37
:10217000938B828B918B808B83E0848B858B85EC1A
:1021800091E00E94291C80E00E94C90F8091D80232
:102190000E94C90F1092D7021F910F91FF90EF90EC
:1021A0000895CF93DF938EE690E09093A5038093FC
:1021B000A40387E890E09093A7038093A6038FEF92
:1021C0009FEF9093AB038093AA039093A90380930E
:1021D000A803D2E0D093AC03D093AD038EEC91E092
:1021E0000E94291C84E190E09093A5038093A403AE
:1021F00085EA90E09093A7038093A60380EE97E092
:102200009093AB038093AA039093A9038093A803B0
:10221000C4E0C093AC03C093AD030E942B1C875D48
:10222000914031F481E080935C028EED91E03FC0FB
:102230000E942B1C825E914029F4D0935C028AEEAE
:1022400091E035C00E942B1C8E5E914031F483E0FA
:1022500080935C0288EF91E02AC00E942B1C8C5F67
:10226000914029F4C0935C0285E092E020C00E9476
:102270002B1C8950924031F485E080935C0280E110
:1022800092E015C00E942B1C8451924031F486E0EC
:1022900080935C028DE192E00AC00E942B1C815267
:1022A000924039F487E080935C0288E292E00E94D9
:1022B000291C85E691E00E94291C0E948F1B209317
:1022C00078033093790340937A0350937B036093B0
:1022D0007C0370937D0380937E0390937F03822F12
:1022E00090E09093770280937602832F90E0909312
:1022F000650280936402311107C080915E028111F2
:1023000003C081E080935E0240917A03411107C0CF
:1023100080915D02811103C081E080935D022A30CB
:1023200010F480E305C0822F6AE00E948C24805D57
:10233000809353025AE0822F652F0E948C24905D77
:10234000909354028AE3809355023A3010F480E36C
:1023500005C0832F652F0E948C24805D80935602D8
:102360002AE0832F622F0E948C24905D9093570265
:102370008AE3809358024A3010F480E305C0842F2A
:10238000622F0E948C24805D80935902842F6AE022
:102390000E948C24905D90935A0210925B0283E518
:1023A00092E0DF91CF910C94291CCF92DF92EF92B3
:1023B000FF920F931F93CF93DF93E12CF12C02E355
:1023C00010E026E930E04CE350E068E270E088E994
:1023D00093E00E949C1DC8E2D0E0D093A503C09377
:1023E000A4038EE190E09093A7038093A6038FEF60
:1023F0009FEF9093AB038093AA039093A9038093DC
:10240000A80382E08093AC038093AD038AEA91E055
:102410000E94291CD093A503C093A4038CE390E0F1
:102420009093A7038093A60380EE97E09093AB036D
:102430008093AA039093A9038093A80386E08093D6
:10244000AC038093AD0360915F0270916002809154
:102450006102909162020E949F236B01770FEE0848
:10246000FF08F7FE0EC06DE288E993E00E94D90AEA
:1024700066277727CB016C197D098E099F094AE0F1
:1024800003C04AE0C701B6010E944E1C8FE591E0EF
:10249000DF91CF911F910F91FF90EF90DF90CF9040
:1024A0000C94291CEF92FF920F931F93EE24EA9451
:1024B000FE2C00EF10E020E431E040E050E060E06E
:1024C00070E088E993E00E9442080EEE10E02EE3EF
:1024D00031E041E050E061E070E088E993E00E9483
:1024E00042080CEE10E02CE331E042E050E062E004
:1024F00070E088E993E00E944208E12CF12C08E2A8
:1025000010E020E630E04FE050E06CED70E088E94C
:1025100093E00E949C1D8091880281112CC090EE56
:10252000E92EFF24FA942CE331E04FE050E06CED0B
:1025300070E088E993E00E94420883EE90E0909377
:10254000A5038093A40389E190E09093A70380936F
:10255000A60380EE9FEF9093AB038093AA03909322
:10256000A9038093A80383E08093AC038093AD0319
:102570008CE292E031C080918802813099F580EE42
:10258000E82E87E0F82E08E210E02CE331E04FE07F
:1025900050E06CED70E088E993E00E94420885EF1E
:1025A00090E09093A5038093A40389E190E0909339
:1025B000A7038093A60380EE97E09093AB038093EC
:1025C000AA039093A9038093A80383E08093AC03AC
:1025D0008093AD0382E392E01F910F91FF90EF9003
:1025E0000C94291C1F910F91FF90EF9008951F925A
:1025F0000F920FB60F921124EF92FF920F931F9339
:102600002F933F934F935F936F937F938F939F93FA
:10261000AF93BF93CF93DF93EF93FF938091D50256
:102620009091D60201969093D6028093D502809124
:10263000D5029091D6024497C1F41092D60210921E
:10264000D50280918902811110C0E12CF12C0EE19C
:1026500010E027E330E045EA50E06AEF70E088E9F7
:1026600093E00E949C1D0E94D110329B13C0809168
:10267000D402811104C081E08093D4021DC18091F5
:10268000D3028C3308F01AC18091D3028F5F8093FC
:10269000D30214C11092D4028091D302882309F48A
:1026A0000DC18091D3028F30D8F0809189028111C1
:1026B0000DC080918802811104C081E0809388025E
:1026C00002C0109288020E945212F6C08091D70276
:1026D000813051F08091D702823009F0EDC004C002
:1026E00080918902811103C00E949410E5C0C091BD
:1026F0008902C13009F0E0C08091D7028111BEC0CB
:102700008091D80281113DC01092C8021092C70278
:1027100060E070E088E993E00E940E090E945E107C
:10272000EE24EA94FE2C08EC10E024E031E044E1D1
:1027300050E06EE170E088E993E00E94420885E590
:1027400090E09093A5038093A4038EE190E0909392
:10275000A7038093A6038FEF9FEF9093AB03809323
:10276000AA039093A9038093A80382E08093AC030B
:102770008093AD0386E392E00E94291C0E94350CF1
:102780003CC08091D8028130D9F560E070E088E9E2
:1027900093E00E940E090E945E10EE24EA94FE2C43
:1027A00008EC10E024E031E044E150E06EE170E03C
:1027B00088E993E00E9442088BE490E09093A5039F
:1027C0008093A4038EE190E09093A7038093A603E7
:1027D0008FEF9FEF9093AB038093AA039093A9038D
:1027E0008093A803C2E0C093AC03C093AD0383E41D
:1027F00092E00E94291C0E94FA0BC093D7025CC091
:102800008091D802823019F588E7E82E82E0F82E10
:1028100006E612E0C0E0D0E0F7016081F2E0EF0EE2
:10282000F11CCE010E94AD22F80160810E5F1F4FA6
:10283000CE010A960E94AD222196C830D10561F7DB
:102840006091630284E190E00E94AD2235C08091E6
:10285000D802833089F51092D80260E070E088E9F0
:1028600093E00E940E09109289020E9452120E9467
:10287000D5110E94D1101092D7021EC08091D702AC
:102880008130C1F48091C7028F5F8093C70280912D
:10289000C702823061F48091C8028F5F8093C802C2
:1028A0008091D2028F5F8093D2021092C7020E9461
:1028B000350C02C08091D7021092D302309B13C016
:1028C0008091D102811104C081E08093D1029AC02D
:1028D0008091D0028C3308F097C08091D0028F5F36
:1028E0008093D00291C01092D1028091D0028823AF
:1028F00009F48AC080918902813009F083C08091F7
:10290000D70281110FC08091D80291E0980F909367
:10291000D802833011F41092D8028091D8020E941C
:10292000C90F70C08091D702813009F04FC08091EB
:10293000C702811107C0E091C802EE0FFF0BE858F3
:10294000FD4F06C0E091D202EE0FFF0BEA59FD4F9A
:1029500080819181019691838083E091C802EE0F7E
:10296000FF0BE858FD4F80819181489750F0E0912E
:10297000C802EE0FFF0BE858FD4F87E190E091830E
:102980008083E091D202EE0FFF0BEA59FD4F808168
:102990009181CC9750F0E091D202EE0FFF0BEA59F3
:1029A000FD4F8BE390E091838083E12CF12C00EAD2
:1029B00010E026E930E047E350E066E470E088E9A3
:1029C00093E00E949C1D0E94350C1CC08091D70290
:1029D0008230C1F4809163028F5F853608F084E60F
:1029E00080936302E12CF12C00EA10E024EB30E04C
:1029F00047E350E066E470E088E993E00E949C1DA4
:102A00000E94FA0B1092D002319B15C08091CF0228
:102A1000811106C081E08093CF021092CE028EC059
:102A20008091CE028C3308F089C08091CE028F5FF6
:102A30008093CE0283C01092CF028091CE02882371
:102A400009F47CC01092CE0280918902813009F095
:102A500075C08091D702882309F470C08091D70295
:102A6000813009F03FC08091C702811107C0E09119
:102A7000C802EE0FFF0BE858FD4F06C0E091D202EE
:102A8000EE0FFF0BEA59FD4F8081918101979183F1
:102A900080838091C802E091C802EE0FFF0BE858D6
:102AA000FD4F808191814A97B8F58091D202E091E3
:102AB000D202EE0FFF0BEA59FD4F80819181CC9736
:102AC000A0F5E12CF12C00EA10E026E930E047E324
:102AD00050E066E470E088E993E00E949C1D0E944B
:102AE000350C2CC08091D702823041F58091630271
:102AF000815080936302E12CF12C00EA10E024EB7A
:102B000030E047E350E066E470E088E993E00E943B
:102B10009C1D0E94FA0B12C0E091C802EE0FFF0B41
:102B2000E858FD4F11821082C0CFE091D202EE0F23
:102B3000FF0BEA59FD4F11821082C3CFFF91EF9135
:102B4000DF91CF91BF91AF919F918F917F916F91C5
:102B50005F914F913F912F911F910F91FF90EF90B7
:102B60000F900FBE0F901F901895FC01918D228D34
:102B7000892F90E0805C9F4F821B91098F7399276A
:102B8000089580E090E0892B29F00E94EF038111E5
:102B90000C94000008950C949525611102C060E228
:102BA00001C061E220E040E050E00C94571ECF935A
:102BB000DF931F92CDB7DEB7FC016370668B623086
:102BC00041F0633079F0613011F088E403C088E2AD
:102BD0000AC088E8898380EF90E09187808780E44D
:102BE00091E008C088EE898380E491E09187808736
:102BF00080EF90E09387828721E0AE014F5F5F4FC7
:102C000066E3CF010E94571E0F90DF91CF91089588
:102C1000FC0187A987FD06C0A38DB48D9C9181A975
:102C2000892B8C9385A9811102C00C94B10B089556
:102C30008F929F92AF92BF92CF92DF92EF92FF92CC
:102C40000F931F93CF93DF935C014B016A01E9015E
:102C500077FD53C0DC0118968D919C9119976817E8
:102C600079070CF04AC0209709F447C037FF07C026
:102C7000C9010196C80ED91ED195C195D109F5019A
:102C800082859385C816D906C4F5A6014C0F5D1F31
:102C90009A012150310937FD30C0D7FE03C0EA0147
:102CA000C12CD12C281739071CF0EC01CC19DD09F7
:102CB000D501ED91FC910284F385E02DC5010995C4
:102CC00078018E0121E030E0A601B401C5010E9427
:102CD000EE1CD501ED91FC910688F789E02DC50128
:102CE000DF91CF911F910F91FF90EF90DF90CF90E8
:102CF000BF90AF909F908F900994DF91CF911F91DB
:102D00000F91FF90EF90DF90CF90BF90AF909F908A
:102D10008F9008958F929F92AF92BF92CF92DF9241
:102D2000EF92FF920F931F93CF93DF935C016B01A0
:102D30004A01E90157FD53C0DC011A968D919C911F
:102D40001B97481759070CF04AC0209709F447C051
:102D500037FF07C0C9010196C80ED91ED195C1958C
:102D6000D109F50180859185C816D906C4F5A6015B
:102D70004C0F5D1F9A012150310937FD30C0D7FE3D
:102D800003C0EA01C12CD12C281739071CF0EC0133
:102D9000CC19DD09D501ED91FC910284F385E02D7C
:102DA000C5010995780101E010E09E01A401B6017A
:102DB000C5010E94EE1CD501ED91FC910688F789B2
:102DC000E02DC501DF91CF911F910F91FF90EF9002
:102DD000DF90CF90BF90AF909F908F900994DF913C
:102DE000CF911F910F91FF90EF90DF90CF90BF9008
:102DF000AF909F908F900895EF92FF920F931F9343
:102E0000CF93DF9377FD34C0DC011896ED91FC91F0
:102E100019976E177F0764F52115310549F137FFC2
:102E200007C0F90131964E0F5F1F31952195310989
:102E3000DC011A96ED91FC911B974E175F07C4F4C5
:102E4000EA01C20FD31FDE011197B7FD11C057FF72
:102E500003C09E0140E050E0AE17BF071CF09F0189
:102E6000241B350B7801890121E030E00E94EE1C23
:102E7000DF91CF911F910F91FF90EF900895EF9206
:102E8000FF920F931F93CF93DF9357FD33C0DC0165
:102E90001A96ED91FC911B974E175F075CF5211573
:102EA000310541F137FF07C0F90131966E0F7F1FE1
:102EB000319521953109DC011896ED91FC91199716
:102EC0006E177F07BCF4EB01C20FD31FDE01119711
:102ED000B7FD10C077FF03C09E0160E070E0AE1741
:102EE000BF071CF09F01261B370B780101E010E0A3
:102EF0000E94EE1CDF91CF911F910F91FF90EF90F8
:102F000008958F929F92AF92BF92CF92DF92EF92ED
:102F1000FF920F931F93CF93DF9347012115310544
:102F200009F44DC00115110509F449C037FF07C068
:102F3000F90131966E0F7F1F319521953109DC0122
:102F40001896AD90BC9019976A157B05C4F517FFCC
:102F500007C0F80131964E0F5F1F119501951109B9
:102F6000DC011A96ED91FC911B974E175F073CF51B
:102F70006B01C20ED31EE6012197D7FD20C07A0156
:102F8000E00EF11ED7011197B7FD19C077FF03C0FE
:102F9000960160E070E057FF03C0870140E050E019
:102FA000CA15DB051CF09501261B370BAE17BF07B2
:102FB0001CF08F01041B150B74010E94EE1CDF91A5
:102FC000CF911F910F91FF90EF90DF90CF90BF9026
:102FD000AF909F908F900895EF92FF920F931F9361
:102FE0002115310529F00115110511F00E949C1DD4
:102FF0001F910F91FF90EF900895FC01848DDF01E8
:10300000A80FB11DA35ABF4F2C91848D90E001965B
:103010008F739927848FA689B7892C93A089B1894A
:103020008C91837080648C93938D848D981306C0EB
:103030000288F389E02D80818F7D80830895089533
:10304000FC01A5A1B6A19C9182A589238C93A5A181
:10305000B6A19C9181A5892B8C9308950F931F9302
:10306000CF93DF93EC018B018DA9811109C01EBDA7
:103070000DB407FEFDCF0EBD0DB407FEFDCF2FC072
:103080008130E9F480E1E9A1FAA1208117FF03C0B2
:103090009DA1922B02C09EA192239083EBA1FCA143
:1030A00020819FA1922B9083EBA1FCA1208198A568
:1030B00092239083000F111F815029F710C0EF8DCC
:1030C000F8A11083CE010E942018EF8DF8A1008393
:1030D000CE01DF91CF911F910F910C942018DF91B9
:1030E000CF911F910F910895AF92BF92CF92DF922F
:1030F000EF92FF920F931F93CF93DF93EC0177FD35
:1031000038C088859985681779079CF557FD31C0C7
:103110008A859B854817590764F569017A015B0127
:10312000E881F9810284F385E02DCE010995E881DB
:10313000F98102A4F3A5E02D01E010E021E030E0E8
:10314000A701B501CE010995B601CE010E942E1846
:10315000E881F9810688F789E02DCE01DF91CF91D2
:103160001F910F91FF90EF90DF90CF90BF90AF90A5
:103170000994DF91CF911F910F91FF90EF90DF9015
:10318000CF90BF90AF900895EF92FF920F931F934F
:10319000CF93DF93EC0177FD22C08885998568176E
:1031A0007907ECF457FD1BC08A859B8548175907A2
:1031B000B4F47901E881F98102A4F3A5E02D01E0DE
:1031C00010E021E030E0CE010995B701CE01DF919A
:1031D000CF911F910F91FF90EF900C942E18DF91DB
:1031E000CF911F910F91FF90EF900895FC0185A959
:1031F000811105C06EBD0DB407FEFDCF089581306D
:10320000E1F488E0A1A1B2A12C9167FF03C095A1D0
:10321000922B02C096A192239C93A3A1B4A12C91BE
:1032200097A1922B9C93660FA3A1B4A12C9190A57A
:1032300092239C93815031F70895A78DB0A16C9390
:10324000CF010C942018CF93DF93EC01ED8DFE8D10
:1032500090818CA989238083CE010E94F618ED8D80
:10326000FE8D90818BA9892B8083DF91CF9108956A
:10327000AF92BF92CF92DF92EF92FF920F931F9384
:10328000CF93DF93EC015B016A0121503109790191
:10329000E60EF71E01501109040F151F6AE20E9485
:1032A0002319B501CE010E942E18B701CE010E944C
:1032B0002E186BE2CE010E942319B601CE010E94A6
:1032C0002E18B801CE010E942E186CE2CE01DF91BB
:1032D000CF911F910F91FF90EF90DF90CF90BF9013
:1032E000AF900C9423191F93CF93DF93EC01162F0B
:1032F000E881F9810284F385E02D0995112311F00D
:103300006DAD01C06EADCE010E942319E881F98137
:103310000688F789E02DCE01DF91CF911F910994A6
:10332000FC0185A9811104C091A182A19CBD8DBD24
:103330000895BF92CF92DF92EF92FF920F931F9367
:10334000CF93DF93EC016A017B01452B462B472B82
:1033500031F4C12C42E1D42E4AE7E42EF12C8FA99E
:1033600087FD07C061E00E94140761E08FA90E94F9
:10337000C50661E088AD0E94140761E088AD0E9437
:10338000C5068DA9811152C040E052E16AE770E0A4
:1033900090E0C416D506E606F70640F476956795E4
:1033A000579547959F5F9630A1F797E081E0892771
:1033B000982F906A969599A381708AA31BA21CA24C
:1033C0001DA21EA21FB7F8948091DA02811127C0B6
:1033D000E7E2F6E08491E9E0F6E09491E82FF0E08E
:1033E000EE0FFF1FE859FF4FA591B491EC91E9232F
:1033F00021F461E08AE00E94C50661E08AE00E9453
:1034000014078CB580618CBD8CB580648CBD61E087
:103410008DE00E94140761E08BE00E941407809108
:10342000DA028F5F8093DA021FBF4BC08130B9F49C
:1034300061E08AA50E94140760E08AA50E94C50683
:1034400061E08CA50E94140760E08CA50E94C5066F
:103450008BA587FD36C060E00E94140732C00DE1E5
:1034600016E0F12CF8018491E82FF0E0EE0FFF1F39
:10347000ED5EF94F859194912F8D38A1281739076A
:1034800041F461E08F2D0E94140760E08F2D0E94AF
:10349000C506F3940F5F1F4FF4E1FF12E3CF61E025
:1034A0008EA50E94140761E08EA50E94C5068FA517
:1034B00087FD07C061E00E94140761E08FA50E94AC
:1034C000C5068EA987FD21C061E00E94140761E056
:1034D0008EA90E94C50664E670E080E090E00E943C
:1034E000500760E08EA90E94C50664E670E080E0A7
:1034F00090E00E94500761E08EA90E94C50668EC2A
:1035000070E080E090E00E9450078EA987FF0DC018
:1035100020E040E050E061E0CE010E94571E66E9E5
:1035200070E080E090E00E94500780E9E82E85E09E
:10353000F82EC7010196F7011491112309F44DC02B
:10354000FC01B4900B2D0F77CE010E9490198FA92A
:1035500087FD06C0EB8DFC8D90818AA9892380832D
:10356000ED8DFE8D90818CA989238083612FCE0102
:103570000E94F618ED8DFE8D90818BA9892B80839A
:10358000C12CD12C10E0C016D10664F4F60132969D
:10359000EE0DFF1D6491CE010E94F618FFEFCF1AC9
:1035A000DF0AF1CF8FA987FD06C0EB8DFC8D9081DE
:1035B00089A9892B80838DA9811102C00E94B10B3A
:1035C0000E5F1F4FE00EF11EB7FEB3CF66E970E04D
:1035D00080E090E00E945007ACCF80EF90E09987A8
:1035E000888780E491E09B878A87DF91CF911F9144
:1035F0000F91FF90EF90DF90CF90BF900895FF92D2
:103600000F931F93CF93DF93F82E062FC7E0D0E0E0
:1036100010E061E0802F0E94C5068F2D0E949C065D
:103620000C2E01C0880F0A94EAF7182B60E0802F57
:103630000E94C506219768F7812FDF91CF911F91D6
:103640000F91FF900895009769F0FC010190002010
:10365000E9F73197AF01481B590BBC0188E993E0AA
:103660000C94920380E090E008951F93CF93DF9332
:1036700060E080918E030E94140710E0C0E0D0E06B
:1036800080918E030E949C0699270C2E01C0880F02
:103690000A94EAF7182B61E080918F030E94C50617
:1036A00060E080918F030E94C5062196C830D10545
:1036B00039F7812FDF91CF911F910895EF92FF92FB
:1036C0000F931F93CF93DF93082F61E080918E03B8
:1036D0000E941407F0908F03E0908E03C0E0D0E0CA
:1036E00010E0B8010C2E02C0759567950A94E2F7B8
:1036F00061708E2D0E94C50661E08F2D0E94C50667
:1037000060E08F2D0E94C5062196C830D10549F78B
:10371000DF91CF911F910F91FF90EF900895EF925D
:10372000FF920F931F93CF93DF93CDB7DEB7289708
:103730000FB6F894DEBF0FBECDBF60E080918F035F
:103740000E94C50661E080918D030E94C5068FEB43
:103750000E945E1B00E913E088E9E82E83E0F82E62
:103760000E94351BF80181938F01EE16FF06C1F709
:1037700060E080918D030E94C50680919003482FE0
:103780004695469546954E70942F990F990F490F7F
:103790008F70480F80919103382F36953695369566
:1037A0003E70932F990F990F390F8F70380F8091BA
:1037B0009203282F2F7087FF08C085FB992790F967
:1037C000FCE09F9F200D112409C08073869586958B
:1037D0008695982F990F990F890F280F6091930361
:1037E00070919403E091950380919603562F56951E
:1037F000569556955E70952F990F990F590F6F70CA
:10380000560F672F6695669566956E70962F990F81
:10381000990F690F7F70670F982F92959F708F7027
:103820007AE0979F800D112490E08053984F9F83FA
:103830008E83782F8F819E2F28960FB6F894DEBF47
:103840000FBECDBFDF91CF911F910F91FF90EF90F1
:1038500008950C94231BCF93DF93CDB7DEB7289741
:103860000FB6F894DEBF0FBECDBF0E948F1B9150E4
:10387000973048F4E92FF0E0EE0FFF1FEA5FFE4FAC
:103880008081918102C082E592E028960FB6F8947B
:10389000DEBF0FBECDBFDF91CF9108958F929F9273
:1038A000AF92BF920F931F93CF93DF93CDB7DEB745
:1038B000A1970FB6F894DEBF0FBECDBF19A242305C
:1038C00008F44AE08E010F5D1F4F842E912CA12C2D
:1038D000B12CA50194010E949824E62FB901CA01D8
:1038E00001501109EA3014F4E05D01C0E95CD8012F
:1038F000EC93232B242B252B61F7C8010E94231B5B
:10390000A1960FB6F894DEBF0FBECDBFDF91CF9169
:103910001F910F91BF90AF909F908F900895BC0121
:1039200080E090E04AE00C944E1CFF920F931F93AE
:10393000CF93DF93809183030E949C06892BD1F75C
:1039400060918203809183030E94FF1AC82F6091C7
:103950008203809183030E94FF1AD82F6091820313
:10396000809183030E94FF1AF82E00E010E08091FE
:10397000840390E00817190768F461E080918203DE
:103980000E94C50660E0809182030E94C5060F5F19
:103990001F4FEDCF8D2F90E0A0E0B0E0BA2FA92F00
:1039A000982F8827AC2BAC01BD014F298C2F880F95
:1039B000880B90E0A0E0B0E0B82FAA2799278827CD
:1039C0008A019B01082B192B2A2B3B2BC901B8011B
:1039D000DF91CF911F910F91FF9008958F929F9249
:1039E000AF92BF92CF92DF92EF92FF920F931F930D
:1039F000CF93DF93EC014901BE2CAF2CE881F98114
:103A000002A4F3A5E02D09959401D8010E94D924C0
:103A1000611571058105910509F481C02DA9211158
:103A20000FC0615071098109910908F478C0AEBCDA
:103A30000DB407FEFDCFBEBC0DB407FEFDCFF1CF28
:103A4000213009F03FC0615071098109910908F4E2
:103A500066C03A2D28E0E9A1FAA1508137FF03C0E2
:103A60004DA1452B02C04EA145234083EBA1FCA1F3
:103A700050814FA1452B4083EBA1FCA1508148A56B
:103A800045234083330F215031F73B2D28E0E9A136
:103A9000FAA1508137FF03C04DA1452B02C04EA1B2
:103AA00045234083EBA1FCA150814FA1452B4083CE
:103AB000EBA1FCA1508148A545234083330F215041
:103AC00031F7C1CFFE1017C0EF8DF8A1F0826B0166
:103AD0007C01CC0CDD1CEE1CFF1CC114D104E104E4
:103AE000F104E9F0CE010E94201881E0C81AD10843
:103AF000E108F108F2CF6B017C01EF8DF8A1A08203
:103B0000CE010E942018EF8DF8A1B082CE010E9454
:103B1000201821E0C21AD108E108F10871F7DF91FD
:103B2000CF911F910F91FF90EF90DF90CF90BF90BA
:103B3000AF909F908F9008958F929F92AF92BF9277
:103B4000CF92DF92EF92FF920F931F93CF93DF9369
:103B50004C01EB016A01590137FF07C0C901019609
:103B6000C80FD91FB194A194B108F401A085B18503
:103B7000CA17DB070CF058C017FF07C0C801019631
:103B8000C80ED91E119501951109F40182859385FE
:103B9000C816D9060CF048C0FE01EA0DFB1DAF01A6
:103BA0004150510957FD40C0B601600F711F9B0184
:103BB0002150310937FD38C0D7FF03C05F01C0E095
:103BC000D0E0D7FE03C08B01C12CD12C4A175B0774
:103BD0001CF05D01AC1ABD0A281739071CF08C01D6
:103BE0000C191D09D401ED91FC910284F385E02D9F
:103BF000C40109959501A601BE01C4010E94EE1CF5
:103C0000D401ED91FC910688F789E02DC401DF9184
:103C1000CF911F910F91FF90EF90DF90CF90BF90C9
:103C2000AF909F908F900994DF91CF911F910F914A
:103C3000FF90EF90DF90CF90BF90AF909F908F90CC
:103C40000895CF93DF93D82FC92F6FEF8BED92E0BC
:103C50000E94F9036FEF8BED92E00E94F9036EEF83
:103C60008BED92E00E94F90365E08BED92E00E94FB
:103C7000F90363E08BED92E00E94F9036EE18BEDB6
:103C800092E00E94F9036D2F8BED92E00E94F90300
:103C90006C2F8BED92E00E94F90364E26D0F6C0FC4
:103CA00060958BED92E0DF91CF910C94F903CF9268
:103CB000DF92EF92FF920F931F93CF93DF93EC016C
:103CC000162F6A01E22E0E9490198FA987FD06C067
:103CD000EB8DFC8D90818AA989238083ED8DFE8DEB
:103CE00090818CA989238083612FCE010E94F618D0
:103CF000ED8DFE8D90818BA9892B80838601F12C1F
:103D0000C8018C199D098E159F053CF4F80161913D
:103D10008F01CE010E94F618F3CF8FA987FD06C050
:103D2000EB8DFC8D908189A9892B80838DA98111D0
:103D30000AC0DF91CF911F910F91FF90EF90DF901C
:103D4000CF900C94B10BDF91CF911F910F91FF9009
:103D5000EF90DF90CF900895789484B5826084BD11
:103D600084B5816084BD85B5826085BD85B581607F
:103D700085BD80916E00816080936E0010928100FD
:103D800080918100826080938100809181008160B8
:103D90008093810080918000816080938000809179
:103DA000B10084608093B1008091B0008160809305
:103DB000B00080917A00846080937A0080917A00CC
:103DC000826080937A0080917A00816080937A008B
:103DD00080917A00806880937A001092C10006E694
:103DE00012E078E7E72E72E0F72EC0E0D0E0CE01D7
:103DF0000E94A52290E0F701819391937F01CE016B
:103E00000A960E94A52290E0F801819391938F0178
:103E10002196C830D10559F784E190E00E94A5228F
:103E20008093630260E080918F030E94C50661E089
:103E300080918D030E94C50681E80E945E1B0E944E
:103E4000351BC82F60E080918D030E94C5066C2F42
:103E50006F7780E00E94F40660E087E00E94F4063D
:103E600040E050E0BA0188E993E00E94991961E0CE
:103E700088E993E00E94D71560E070E088E993E05C
:103E80000E940E0910928902109288020E9452121A
:103E90000E94D5110E94D110E091EB02F091EC024A
:103EA00092E09083E091E702F091E8021082E091C5
:103EB000E902F091EA028FEC80831092F302E09124
:103EC000EF02F091F00286E08083E091ED02F09144
:103ED000EE02808180618083E091ED02F091EE023C
:103EE000808188608083E091ED02F091EE02808114
:103EF00080688083E091ED02F091EE0280818F7DF9
:103F00008083109280008BE08093810090936F00FB
:103F100083ED90E390938900809388007894CAE0C1
:103F2000C12CD12C76010E94951CC60ED71EE81E0E
:103F3000F91EC150C1F7C701B6012AE030E040E0E8
:103F400050E00E94BA24CA01B9010E94D7230E94FE
:103F50009F236093850370938603809387039093D8
:103F6000880388EC90E00E94211E6CE271E080E002
:103F700090E00E94500784EF91E00E94211E6CE2C5
:103F800071E080E090E00E945007812C50E4952E73
:103F90005CE1A52E56ECB52E62E0762E6624639485
:103FA0008091890281112CC18092890390928A03A9
:103FB000A0928B03B0928C03C091B202D091B30255
:103FC0008E01000F111F000F111F06571D4FF80122
:103FD00020813181428153816091B4027091B50298
:103FE0008091B6029091B7020E94BB226B017C01C6
:103FF0000E94951C20918503309186034091870390
:1040000050918803621B730B840B950B0E94D7237E
:104010002091890330918A0340918B0350918C0346
:104020000E942D239B01AC01F80160837183828380
:104030009383C701B6010E94BC226093B4027093BF
:10404000B5028093B6029093B7029E012F5F3F4F57
:104050002A3031052CF43093B3022093B20204C00D
:104060001092B3021092B20220E030E040E251E43C
:104070000E942D236B017C0160935F0270936002AC
:1040800080936102909362026091B8027091B902CC
:10409000072E000C880B990B0E94D7231B012C01C3
:1040A00020E030E040E450E4C701B6010E94BC22A9
:1040B0009B01AC01C201B1010E948724181684F053
:1040C00020E030E040E450E4C701B6010E94BB228A
:1040D0009B01AC01C201B1010E94282387FF2CC0C3
:1040E000C701B6010E949F237093B9026093B80282
:1040F00020E030E040EA50E4C701B6010E942823E6
:1041000087FD0AC020E030E04CED52E4C701B60163
:104110000E948724181644F410925F0210926002E5
:1041200010926102109262020E94D5116AE070E062
:1041300080E090E00E94500780915E02813099F407
:1041400070925E02E12CF12C0EE110E027E330E0EA
:1041500045EA50E06EE670E088E993E00E949C1D1D
:104160000E94D11007C0823029F480917903811117
:1041700010925E0280915D02813099F470925D022E
:10418000E12CF12C0EE110E027E330E045EA50E0AD
:1041900064EB70E088E993E00E949C1D0E94D110BE
:1041A00007C0823029F480917A03811110925D0258
:1041B0009091BA0280915C029817A1F0E12CF12C49
:1041C0000EE110E02BE430E045EA50E064E170E0FD
:1041D00088E993E00E949C1D80915C028093BA0262
:1041E0000E94D110E12CF12C08E210E024E630E02E
:1041F00043EC50E063E070E088E993E00E949C1D8E
:1042000080918802813009F065C006E612E038E747
:10421000E32E32E0F32EC0E0D0E0F70181919191DE
:104220007F01C0907602D09077028C159D0579F5BC
:10423000F8012081318180916402909165022817F4
:10424000390729F5D093BD02C093BC026091630287
:1042500070E080E090E00E94D72320915F023091CF
:10426000600240916102509162020E942823181658
:104270001CF06092BB0207C08091BB02811103C099
:1042800088EC90E002C084EF91E00E94211E8091B2
:10429000BC029091BD02880F991FFC01E858FD4FA8
:1042A00020813181C216D30661F4FC01EA59FD4F29
:1042B000208131818091640290916502281739072D
:1042C00011F01092BB0221960E5F1F4FC830D1052E
:1042D00009F0A3CF0E94C11563CECF931092DE02E6
:1042E0001092DD0288EE93E0A0E0B0E08093DF0260
:1042F0009093E002A093E102B093E20288E191E0A2
:104300009093DC028093DB0285EC90E09093E802CE
:104310008093E70284EC90E09093EA028093E902B4
:1043200080EC90E09093EC028093EB0281EC90E0C3
:104330009093EE028093ED0282EC90E09093F00275
:104340008093EF0286EC90E09093F2028093F1026A
:104350001092F4021092F5021092F6021092F702F7
:104360008091DC03883030F48F5F8093DC0380938E
:10437000DD0302C01092DD0310929B0310929A039A
:1043800020EF30E030939D0320939C0380E491E084
:1043900090939F0380939E033093A1032093A003E7
:1043A0009093A3038093A2031092AE031092A503EF
:1043B0001092A4031092A7031092A603C1E0C09329
:1043C000AD03C093AC038FEF9FEF9093AB0380934B
:1043D000AA039093A9038093A803C093AF031092FC
:1043E000B0031092B2031092B1031092CD038093E8
:1043F000CE038AE08093CF0389E08093D0031092AC
:10440000D2031092D1031092D4031092D3031092CE
:10441000D5031092D6031092D7031092D8031092AE
:10442000D9031092DA038BED93E09093B803809355
:10443000B703E6E2F6E0E491F0E0EE0FFF1FED5E79
:10444000F94F859194919093B6038093B503E8E07A
:10445000F6E084918093CB03E7E2F6E0E491F0E0AC
:10446000EE0FFF1FED5EF94F259134913093B403A9
:104470002093B303E9E0F6E0E491E093C903E0950B
:10448000E093CA03E82FE095E093CC0382E391E048
:10449000909399038093980382E080938D0383E047
:1044A00080938E0384E080938F0361E082E00E941A
:1044B000140761E080918F030E9414078AE291E063
:1044C000909381038093800310928503109286035A
:1044D000109287031092880380E090E0A0E8BFE389
:1044E0008093890390938A03A0938B03B0938C03EA
:1044F00083E18093820382E18093830361E083E11F
:104500000E94140760E0809183030E941407C09307
:10451000840360E0809182030E94C5060E94951C7E
:104520008AED97E090937E0380937D03C0937C0394
:10453000C0937B03109278031092790310927A0350
:1045400085E080937F03CF910895F999FECF92BDC6
:1045500081BDF89A992780B50895262FF999FECF45
:104560001FBA92BD81BD20BD0FB6F894FA9AF99A90
:104570000FBE019608955058BB27AA270E94D32248
:104580000C944D240E943F2438F00E94462420F0D1
:1045900039F49F3F19F426F40C943C240EF4E09572
:1045A000E7FB0C943624E92F0E945E2458F3BA17D7
:1045B000620773078407950720F079F4A6F50C9439
:1045C00080240EF4E0950B2EBA2FA02D0B01B9011B
:1045D00090010C01CA01A0011124FF27591B99F079
:1045E000593F50F4503E68F11A16F040A22F232F85
:1045F000342F4427585FF3CF469537952795A795D5
:10460000F0405395C9F77EF41F16BA0B620B730B7B
:10461000840BBAF09150A1F0FF0FBB1F661F771FEC
:10462000881FC2F70EC0BA0F621F731F841F48F4A1
:10463000879577956795B795F7959E3F08F0B0CF2A
:104640009395880F08F09927EE0F97958795089511
:104650000E94122408F481E008950E9441230C94E2
:104660004D240E94462458F00E943F2440F029F433
:104670005F3F29F00C94362451110C9481240C9442
:104680003C240E945E2468F39923B1F3552391F3EF
:10469000951B550BBB27AA2762177307840738F0B1
:1046A0009F5F5F4F220F331F441FAA1FA9F335D00E
:1046B0000E2E3AF0E0E832D091505040E695001CC2
:1046C000CAF72BD0FE2F29D0660F771F881FBB1F7C
:1046D000261737074807AB07B0E809F0BB0B802D5A
:1046E000BF01FF2793585F4F3AF09E3F510578F086
:1046F0000C9436240C9481245F3FE4F3983ED4F369
:10470000869577956795B795F7959F5FC9F7880F59
:10471000911D9695879597F90895E1E0660F771FAB
:10472000881FBB1F621773078407BA0720F0621B3C
:10473000730B840BBA0BEE1F88F7E09508950E9467
:10474000A6236894B1110C94812408950E946624D4
:1047500088F09F5798F0B92F9927B751B0F0E1F042
:10476000660F771F881F991F1AF0BA95C9F714C0F2
:10477000B13091F00E948024B1E008950C9480241F
:10478000672F782F8827B85F39F0B93FCCF386952B
:1047900077956795B395D9F73EF490958095709588
:1047A00061957F4F8F4F9F4F0895E89409C097FB05
:1047B0003EF490958095709561957F4F8F4F9F4FF8
:1047C0009923A9F0F92F96E9BB279395F69587953C
:1047D00077956795B795F111F8CFFAF4BB0F11F4FF
:1047E00060FF1BC06F5F7F4F8F4F9F4F16C08823A6
:1047F00011F096E911C0772321F09EE8872F762FDC
:1048000005C0662371F096E8862F70E060E02AF01C
:104810009A95660F771F881FDAF7880F9695879508
:1048200097F90895990F0008550FAA0BE0E8FEEFDD
:1048300016161706E807F907C0F012161306E40764
:10484000F50798F0621B730B840B950B39F40A265D
:1048500061F0232B242B252B21F408950A2609F43B
:10486000A140A6958FEF811D811D089597F99F673F
:1048700080E870E060E008959FEF80EC08950024E8
:104880000A941616170618060906089500240A94B5
:1048900012161306140605060895092E0394000C3B
:1048A00011F4882352F0BB0F40F4BF2B11F460FFCA
:1048B00004C06F5F7F4F8F4F9F4F089557FD9058F3
:1048C000440F551F59F05F3F71F04795880F97FBD4
:1048D000991F61F09F3F79F087950895121613068E
:1048E0001406551FF2CF4695F1DF08C016161706BD
:1048F0001806991FF1CF86957105610508940895F2
:10490000E894BB2766277727CB0197F908950E9483
:10491000122408F48FEF0895991B79E004C0991FC1
:10492000961708F0961B881F7A95C9F78095089509
:10493000A1E21A2EAA1BBB1BFD010DC0AA1FBB1FA3
:10494000EE1FFF1FA217B307E407F50720F0A21B15
:10495000B30BE40BF50B661F771F881F991F1A9482
:1049600069F760957095809590959B01AC01BD01AC
:10497000CF010895052E97FB1EF400940E94D124C8
:1049800057FD07D00E94982407FC03D04EF40C94E6
:10499000D12450954095309521953F4F4F4F5F4F13
:1049A000089590958095709561957F4F8F4F9F4F9B
:1049B00008950E94E124332312F48A1B9B0B0C946C
:1049C000F224A29FB001B39FC001A39F700D811D6F
:1049D0001124911DB29F700D811D1124911D089508
:1049E0000E94E124B7FF0895821B930B0895EE0FF8
:1049F000FF1F0590F491E02D09940F931F93CF931F
:104A0000DF938230910510F482E090E0E091E003C2
:104A1000F091E10320E030E0A0E0B0E0309719F140
:104A2000408151810281138148175907C8F08417CA
:104A3000950769F4109731F012960C93129713961C
:104A40001C9327C00093E0031093E10322C02115BB
:104A5000310519F04217530718F49A01BD01EF010F
:104A6000DF01F801DBCF21153105F9F0281B390BE7
:104A70002430310580F48A819B816115710521F014
:104A8000FB019383828304C09093E1038093E0034E
:104A9000FE01329644C0FE01E20FF31F8193919311
:104AA00022503109398328833AC02091DE033091A6
:104AB000DF03232B41F42091020130910301309355
:104AC000DF032093DE0320910001309101012115C5
:104AD000310541F42DB73EB74091040150910501D5
:104AE000241B350BE091DE03F091DF03E217F3079F
:104AF000A0F42E1B3F0B2817390778F0AC014E5F4E
:104B00005F4F2417350748F04E0F5F1F5093DF03A8
:104B10004093DE038193919302C0E0E0F0E0CF0187
:104B2000DF91CF911F910F910895CF93DF9300975D
:104B300009F481C0FC01329713821282A091E00334
:104B4000B091E103109781F420813181820F931F8E
:104B50002091DE033091DF032817390751F5F093D8
:104B6000DF03E093DE0367C0ED0120E030E0CE1705
:104B7000DF0740F44A815B819E0141155105F1F048
:104B8000EA01F5CFD383C28340815181840F951F01
:104B9000C817D90759F488819981840F951F029607
:104BA000918380838A819B81938382832115310540
:104BB00029F4F093E103E093E0033DC0E901FB83B6
:104BC000EA8349915991C40FD51FEC17FD0761F491
:104BD00080819181840F951F0296E90199838883D2
:104BE000828193819B838A83E0E0F0E012968D912D
:104BF0009C911397009719F0FD01DC01F7CF8D917F
:104C00009C9111979D012E5F3F4F820F931F209122
:104C1000DE033091DF032817390769F4309729F450
:104C20001092E1031092E00302C013821282B0934B
:104C3000DF03A093DE03DF91CF91089581E090E040
:0A4C4000F8940C942326F894FFCF9B
:104C4A000000E2038000D701E201EE01FC01090243
:104C5A001402210200000000F9039203BC03460477
:104C6A00B515CB03DF03000000001F18CB150000A9
:104C7A000000D90A9203C50AC40A7418C80AC418DB
:104C8A008117FC163F17120A0816D715CD151816E4
:104C9A008A16EC170E09A1084208991938192067D3
:104CAA00003E20312E20003A003E20322E20003EC7
:104CBA0020332E20003E20342E20003E20352E2088
:104CCA00003E20362E20003E20372E20003E20387F
:104CDA002E20003E20312E205345542054494D4564
:104CEA00003E20322E205345542057454947485408
:104CFA00003E20332E2053415645003E20342E20BC
:104D0A004241434B003E204D454E55203C004E4FFC
:104D1A00572054494D45004D6F6E646179004D4FDF
:104D2A004E005475657364617900545545005765A2
:104D3A00646E6573646179005745440054687572FE
:104D4A007364617900544855004672696461790058
:104D5A004652490053617475726461790053415433
:104D6A000053756E6461790053554E0052454144B3
:104D7A00590052554E003E2054494D452053455442
:104D8A00203C003E2057454947485420534554206B
:0C4D9A003C007878787878787878780099
:107E0000112484B714BE81FFF0D085E080938100F7
:107E100082E08093C00088E18093C10086E0809377
:107E2000C20080E18093C4008EE0C9D0259A86E02C
:107E300020E33CEF91E0309385002093840096BBD3
:107E4000B09BFECF1D9AA8958150A9F7CC24DD24C4
:107E500088248394B5E0AB2EA1E19A2EF3E0BF2EE7
:107E6000A2D0813461F49FD0082FAFD0023811F036
:107E7000013811F484E001C083E08DD089C08234E0
:107E800011F484E103C0853419F485E0A6D080C0E4
:107E9000853579F488D0E82EFF2485D0082F10E0AE
:107EA000102F00270E291F29000F111F8ED06801E7
:107EB0006FC0863521F484E090D080E0DECF843638
:107EC00009F040C070D06FD0082F6DD080E0C81688
:107ED00080E7D80618F4F601B7BEE895C0E0D1E017
:107EE00062D089930C17E1F7F0E0CF16F0E7DF06D8
:107EF00018F0F601B7BEE89568D007B600FCFDCFD4
:107F0000A601A0E0B1E02C9130E011968C91119780
:107F100090E0982F8827822B932B1296FA010C0160
:107F200087BEE89511244E5F5F4FF1E0A038BF0790
:107F300051F7F601A7BEE89507B600FCFDCF97BE46
:107F4000E89526C08437B1F42ED02DD0F82E2BD052
:107F50003CD0F601EF2C8F010F5F1F4F84911BD097
:107F6000EA94F801C1F70894C11CD11CFA94CF0C13
:107F7000D11C0EC0853739F428D08EE10CD085E9AC
:107F80000AD08FE07ACF813511F488E018D01DD067
:107F900080E101D065CF982F8091C00085FFFCCF94
:107FA0009093C60008958091C00087FFFCCF809118
:107FB000C00084FD01C0A8958091C6000895E0E648
:107FC000F0E098E1908380830895EDDF803219F02E
:107FD00088E0F5DFFFCF84E1DECF1F93182FE3DFCA
:107FE0001150E9F7F2DF1F91089580E0E8DFEE27F6
:047FF000FF270994CA
:027FFE00040479
:0400000300007E007B
:00000001FF
