:100000000C941A030C9442030C9442030C94521364
:100010000C9452130C9452130C9442030C9442030C
:100020000C9442030C9414130C9442030C94060A8F
:100030000C9442030C9442030C9442030C9442032C
:100040000C9470170C9442030C94E0170C94BA179C
:100050000C9442030C9442030C9442030C9442030C
:100060000C9442030C94420300000000240027007B
:100070002A000000000023002600290000000008DC
:10008000000201000003040700000000000000005F
:1000900000000000003E5B4F5B3E3E6B4F6B3E1C22
:1000A0003E7C3E1C183C7E3C181C577D571C1C5E39
:1000B0007F5E1C00183C1800FFE7C3E7FF00182410
:1000C0001800FFE7DBE7FF30483A060E26297929BA
:1000D00026407F050507407F05253F5A3CE73C5AEF
:1000E0007F3E1C1C08081C1C3E7F14227F22145FCC
:1000F0005F005F5F06097F017F006689956A606027
:1001000060606094A2FFA29408047E040810207E20
:10011000201008082A1C08081C2A08081E101010A5
:10012000100C1E0C1E0C30383E3830060E3E0E06EB
:10013000000000000000005F00000007000700143E
:100140007F147F14242A7F2A1223130864623649FD
:100150005620500008070300001C224100004122E5
:100160001C002A1C7F1C2A08083E080800807030EA
:100170000008080808080000606000201008040259
:100180003E5149453E00427F40007249494946215F
:1001900041494D331814127F1027454545393C4AD3
:1001A00049493141211109073649494936464949EA
:1001B000291E000014000000403400000008142232
:1001C00041141414141400412214080201590906A0
:1001D0003E415D594E7C1211127C7F494949363EA1
:1001E000414141227F4141413E7F494949417F0987
:1001F0000909013E414151737F0808087F00417F92
:1002000041002040413F017F081422417F4040408F
:10021000407F021C027F7F0408107F3E4141413E27
:100220007F090909063E4151215E7F0919294626A9
:100230004949493203017F01033F4040403F1F20AD
:1002400040201F3F4038403F631408146303047884
:1002500004036159494D43007F41414102040810A4
:1002600020004141417F04020102044040404040DF
:10027000000307080020545478407F28444438384D
:1002800044444428384444287F38545454180008BF
:100290007E090218A4A49C787F0804047800447D99
:1002A00040002040403D007F1028440000417F4036
:1002B000007C047804787C0804047838444444388A
:1002C000FC1824241818242418FC7C08040408486A
:1002D0005454542404043F44243C4040207C1C20BB
:1002E00040201C3C4030403C44281028444C909016
:1002F000907C4464544C4400083641000000770070
:1003000000004136080002010204023C2623263C7C
:100310001EA1A161123A4040207A38545455592107
:1003200055557941225454784221555478402054EF
:100330005579400C1E52721239555555593954543D
:10034000545939555454580000457C410002457DAC
:10035000420001457C407D1211127DF0282528F0D5
:100360007C545545002054547C547C0A097F493202
:10037000494949323A4444443A324A4848303A4179
:1003800041217A3A42402078009DA0A07D3D424222
:10039000423D3D4040403D3C24FF2424487E4943AB
:1003A000662B2FFC2F2BFF0929F620C0887E09031E
:1003B00020545479410000447D413048484A323845
:1003C0004040227A007A0A0A727D0D19317D262971
:1003D000292F28262929292630484D402038080869
:1003E000080808080808382F10C8ACBA2F1028349D
:1003F000FA00007B000008142A142222142A140890
:100400005500550055AA55AA55AAFF55FF55FF009E
:100410000000FF00101010FF00141414FF00101053
:10042000FF00FF1010F010F0141414FC001414F767
:1004300000FF0000FF00FF1414F404FC1414171054
:100440001F10101F101F1414141F00101010F000A4
:100450000000001F101010101F10101010F01000DE
:100460000000FF101010101010101010FF100000EE
:1004700000FF140000FF00FF00001F10170000FC29
:1004800004F414141710171414F404F40000FF00FB
:10049000F714141414141414F700F7141414171484
:1004A00010101F101F141414F4141010F010F0008A
:1004B000001F101F0000001F14000000FC140000AB
:1004C000F010F01010FF10FF141414FF141010108F
:1004D0001F00000000F010FFFFFFFFFFF0F0F0F042
:1004E000F0FFFFFF0000000000FFFF0F0F0F0F0FD6
:1004F0003844443844FC4A4A4A347E020206060222
:100500007E027E0263554941633844443C04407E88
:10051000201E2006027E020299A5E7A5991C2A4901
:100520002A1C4C7201724C304A4D4D30304878488C
:1005300030BC625A463D3E494949007E0101017E78
:100540002A2A2A2A2A44445F444440514A444040CB
:10055000444A51400000FF0103E080FF000008080A
:100560006B6B083612362436060F090F060000188A
:10057000180000001010003040FF0101001F0101B1
:100580001E00191D1712003C3C3C3C0000000000FE
:10059000010204081020408001020408102001021A
:1005A0000408102000000000250028002B0004048F
:1005B000040404040404020202020202030303030B
:1005C0000303EF03038002CF0300C130ED04640393
:1005D0001281E803850078CB05392C003402F7013D
:1005E00020EA020000C00123C10110C5023E28C755
:1005F00001863601483701003A0155B1020018B6AC
:1006000003088227F20100260101E00F0F312B0CB5
:100610000E084EF1370710030E0900E10F000E140B
:1006200003110731C148080F0C31360F11802980A2
:100630000000832111241FBECFEFD8E0DEBFCDBF65
:1006400012E0A0E0B1E0E6E7FCE402C005900D9204
:10065000AC35B107D9F723E0ACE5B2E001C01D929B
:10066000A13EB207E1F713E0CAE1D3E004C021974D
:10067000FE010E940D25C931D107C9F70E94AE1EA7
:100680000C9439260C940000CF93DF93EAE8F2E053
:10069000A8E7B2E080819181489710F01182108222
:1006A0008D919C911197CC9718F011961C921E92E7
:1006B0003296129682E0EA39F80761F7C0EEDFEF72
:1006C000D093A903C093A803D093A703C093A60314
:1006D0008AE590E09093A3038093A20387E390E0E0
:1006E0009093A5038093A40382E08093AA03809350
:1006F000AB038EE591E00E9441198091690281115E
:100700000FC080916802811113C08FEF9FEF90930B
:10071000A9038093A8039093A7038093A60308C01E
:10072000D093A903C093A803D093A703C093A603B3
:1007300080918A0290918B020E94A719C0EEDFEF90
:10074000D093A903C093A803D093A703C093A60393
:1007500084E691E00E9441198091690281110FC0E5
:1007600080916802813099F48FEF9FEF9093A903F5
:100770008093A8039093A7038093A60308C0D09307
:10078000A903C093A803D093A703C093A6038091A5
:100790007802909179020E94A719C0EEDFEFD09302
:1007A000A903C093A803D093A703C093A6038AE527
:1007B00090E09093A3038093A2038BE490E0909346
:1007C000A5038093A40382E08093AA038093AB03E4
:1007D00086E691E00E94411980916902813079F4A6
:1007E00080916802811113C08FEF9FEF9093A9034E
:1007F0008093A8039093A7038093A60308C0D09387
:10080000A903C093A803D093A703C093A603809124
:100810008C0290918D020E94A719C0EEDFEFD09359
:10082000A903C093A803D093A703C093A60384E6AB
:1008300091E00E94411980916902813079F48091A0
:100840006802813099F48FEF9FEF9093A903809312
:10085000A8039093A7038093A60308C0D093A9038D
:10086000C093A803D093A703C093A60380917A02F4
:1008700090917B020E94A719C0EEDFEFD093A903ED
:10088000C093A803D093A703C093A6038AE590E082
:100890009093A3038093A2038FE590E09093A50328
:1008A0008093A40382E08093AA038093AB038CE639
:1008B00091E00E94411980916902823079F480911F
:1008C0006802811113C08FEF9FEF9093A90380936B
:1008D000A8039093A7038093A60308C0D093A9030D
:1008E000C093A803D093A703C093A60380918E0260
:1008F00090918F020E94A719C0EEDFEFD093A90359
:10090000C093A803D093A703C093A60384E691E005
:100910000E94411980916902823079F480916802C5
:10092000813099F48FEF9FEF9093A9038093A803F0
:100930009093A7038093A60308C0D093A903C09304
:10094000A803D093A703C093A60380917C02909143
:100950007D020E94A719C0EEDFEFD093A903C093D8
:10096000A803D093A703C093A6038AE590E09093D1
:10097000A3038093A20383E790E09093A503809361
:10098000A40382E08093AA038093AB0382E791E003
:100990000E94411980916902833079F48091680244
:1009A000811113C08FEF9FEF9093A9038093A80349
:1009B0009093A7038093A60308C0D093A903C09384
:1009C000A803D093A703C093A603809190029091AF
:1009D00091020E94A719C0EEDFEFD093A903C09344
:1009E000A803D093A703C093A60384E691E00E94D6
:1009F000411980916902833079F4809168028130D5
:100A000099F48FEF9FEF9093A9038093A80390939D
:100A1000A7038093A60308C0D093A903C093A8039B
:100A2000D093A703C093A60380917E0290917F028A
:100A30000E94A719C0EEDFEFD093A903C093A803CB
:100A4000D093A703C093A6038AE590E09093A303F5
:100A50008093A20387E890E09093A5038093A4037A
:100A600082E08093AA038093AB0388E791E00E9421
:100A7000411980916902843079F480916802811172
:100A800013C08FEF9FEF9093A9038093A8039093D7
:100A9000A7038093A60308C0D093A903C093A8031B
:100AA000D093A703C093A6038091920290919302E2
:100AB0000E94A719C0EEDFEFD093A903C093A8034B
:100AC000D093A703C093A60384E691E00E94411946
:100AD00080916902843079F480916802813099F4C0
:100AE0008FEF9FEF9093A9038093A8039093A703A0
:100AF0008093A60308C0D093A903C093A803D09302
:100B0000A703C093A60380918002909181020E9466
:100B1000A719C0EEDFEFD093A903C093A803D09329
:100B2000A703C093A6038AE590E09093A303809364
:100B3000A2038BE990E09093A5038093A40382E045
:100B40008093AA038093AB038EE791E00E94411942
:100B500080916902853079F480916802811113C017
:100B60008FEF9FEF9093A9038093A8039093A7031F
:100B70008093A60308C0D093A903C093A803D09381
:100B8000A703C093A60380919402909195020E94BE
:100B9000A719C0EEDFEFD093A903C093A803D093A9
:100BA000A703C093A60384E691E00E9441198091B7
:100BB0006902853079F480916802813099F48FEF71
:100BC0009FEF9093A9038093A8039093A70380932A
:100BD000A60308C0D093A903C093A803D093A7038A
:100BE000C093A60380918202909183020E94A7196C
:100BF000C0EEDFEFD093A903C093A803D093A7035F
:100C0000C093A6038AE590E09093A3038093A20388
:100C10008FEA90E09093A5038093A40382E08093F1
:100C2000AA038093AB0384E891E00E94411980916C
:100C30006902863079F480916802811113C08FEFC8
:100C40009FEF9093A9038093A8039093A7038093A9
:100C5000A60308C0D093A903C093A803D093A70309
:100C6000C093A60380919602909197020E94A719C3
:100C7000C0EEDFEFD093A903C093A803D093A703DE
:100C8000C093A60384E691E00E9441198091690215
:100C9000863079F480916802813099F48FEF9FEF6C
:100CA0009093A9038093A8039093A7038093A6032E
:100CB00008C0D093A903C093A803D093A703C093FF
:100CC000A60380918402909185020E94A719C0EE2C
:100CD000DFEFD093A903C093A803D093A703C093D9
:100CE000A6038AE590E09093A3038093A20383EC8C
:100CF00090E09093A5038093A40382E08093AA03DD
:100D00008093AB038AE891E00E94411980916902C7
:100D1000873079F480916802811113C08FEF9FEFC3
:100D20009093A9038093A8039093A7038093A603AD
:100D300008C0D093A903C093A803D093A703C0937E
:100D4000A60380919802909199020E94A719C0EE83
:100D5000DFEFD093A903C093A803D093A703C09358
:100D6000A60384E691E00E944119809169028730D0
:100D700079F480916802813099F48FEF9FEF90931E
:100D8000A9038093A8039093A7038093A60308C0A8
:100D9000D093A903C093A803D093A703C093A6033D
:100DA0008091860290918702DF91CF910C94A719D0
:100DB0000F931F93CF93C82F811103C08FEF9FEF25
:100DC00002C080EE9FEF9093A9038093A8039093B5
:100DD000A7038093A60306E410E01093A3030093F7
:100DE000A2038AE590E09093A5038093A40382E098
:100DF0008093AA038093AB0380E991E00E9441199C
:100E00001093A3030093A20388E790E09093A503B7
:100E10008093A403C13019F48FEF9FEF02C080EEDE
:100E20009FEF9093A9038093A8039093A7038093C7
:100E3000A60382E08093AA038093AB038EE991E03E
:100E40000E94411986E490E09093A3038093A2034B
:100E500086E990E09093A5038093A403C23019F42F
:100E60008FEF9FEF02C080EE9FEF9093A9038093D6
:100E7000A8039093A7038093A60382E08093AA031C
:100E80008093AB038EEA91E00E94411986E490E0E2
:100E90009093A3038093A20384EB90E09093A50327
:100EA0008093A403C33019F48FEF9FEF02C080EE4C
:100EB0009FEF9093A9038093A8039093A703809337
:100EC000A60382E08093AA038093AB0388EB91E0B2
:100ED000CF911F910F910C944119EF92FF920F93B4
:100EE0001F9360E070E086E993E00E94AB0DEE2472
:100EF000EA94FE2C00EF10E020E431E040E050E006
:100F000060E070E086E993E00E94DF0C0EEE10E0F6
:100F10002EE331E041E050E061E070E086E993E0EB
:100F20000E94DF0C0CEE10E02CE331E042E050E0D8
:100F300062E070E086E993E00E94DF0C1F910F9160
:100F4000FF90EF900895EF92FF920F931F9381E02F
:100F500080939B020E946D07EE24EA94FE2C08EC1D
:100F600010E024E031E044E150E06EE170E086E919
:100F700093E00E94DF0CE6E9F3E08AE590E09587D4
:100F8000848788E290E0978786878FEF9FEF938B27
:100F9000828B918B808B83E0848B858B82EC91E0BC
:100FA0000E94411980E00E94D806809167020E9449
:100FB000D806109266021F910F91FF90EF9008954E
:100FC000CF93DF938EE690E09093A3038093A203E8
:100FD00087E890E09093A5038093A4038FEF9FEFA1
:100FE0009093A9038093A8039093A7038093A603EB
:100FF000D2E0D093AA03D093AB038BEC91E00E9494
:10100000411984E190E09093A3038093A20385EAC1
:1010100090E09093A5038093A40380EE97E09093D3
:10102000A9038093A8039093A7038093A603C4E029
:10103000C093AA03C093AB030E944319845D9140FF
:1010400031F481E080936E028BED91E03FC00E940D
:1010500043198F5D914029F4D0936E0287EE91E0A1
:1010600035C00E9443198B5E914031F483E0809338
:101070006E0285EF91E02AC00E944319895F91407A
:1010800029F4C0936E0282E092E020C00E944319CE
:101090008650924031F485E080936E028DE092E0BC
:1010A00015C00E9443198151924031F486E080932B
:1010B0006E028AE192E00AC00E9443198E5192406A
:1010C00039F487E080936E0285E292E00E94411934
:1010D00082E691E00E9441190E94A71820937603AE
:1010E00030937703409378035093790360937A03A6
:1010F00070937B0380937C0390937D03822F90E019
:101100009093890280938802832F90E090937702D6
:1011100080937602311107C080917002811103C063
:1011200081E08093700240917803411107C0809163
:101130006F02811103C081E080936F022A3010F4A6
:1011400080E305C0822F6AE00E94A224805D809324
:1011500053025AE0822F652F0E94A224905D909343
:1011600054028AE3809355023A3010F480E305C0BC
:10117000832F652F0E94A224805D809356022AE06F
:10118000832F622F0E94A224905D909357028AE3DE
:10119000809358024A3010F480E305C0842F622FF8
:1011A0000E94A224805D80935902842F6AE00E94ED
:1011B000A224905D90935A0210925B0283E592E024
:1011C000DF91CF910C944119CF92DF92EF92FF9271
:1011D0000F931F93CF93DF93E12CF12C02E310E0E8
:1011E00026E930E04CE350E068E270E086E993E005
:1011F0000E94B41AC8E2D0E0D093A303C093A20324
:101200008EE190E09093A5038093A4038FEF9FEF6E
:101210009093A9038093A8039093A7038093A603B8
:1012200082E08093AA038093AB0387EA91E00E9457
:101230004119D093A303C093A2038CE390E0909351
:10124000A5038093A40380EE97E09093A903809375
:10125000A8039093A7038093A60386E08093AA0334
:101260008093AB036091710270917202809173025E
:10127000909174020E94B5236B01770FEE08FF086E
:10128000F7FE0EC06DE286E993E00E94E911662741
:101290007727CB016C197D098E099F094AE003C0AD
:1012A0004AE0C701B6010E94661980E592E0DF912D
:1012B000CF911F910F91FF90EF90DF90CF900C9402
:1012C0004119EF92FF920F931F93EE24EA94FE2CA4
:1012D00000EF10E020E431E040E050E060E070E03A
:1012E00086E993E00E94DF0C0EEE10E02EE331E081
:1012F00041E050E061E070E086E993E00E94DF0C9D
:101300000CEE10E02CE331E042E050E062E070E0EF
:1013100086E993E00E94DF0CE12CF12C08E210E05A
:1013200020E630E04FE050E06CED70E086E993E0BD
:101330000E94B41A80919A0281112CC090EEE92E7D
:10134000FF24FA942CE331E04FE050E06CED70E0C4
:1013500086E993E00E94DF0C83EE90E09093A30374
:101360008093A20389E190E09093A5038093A40366
:1013700080EE9FEF9093A9038093A8039093A70317
:101380008093A60383E08093AA038093AB0389E252
:1013900092E031C080919A02813099F580EEE82E7A
:1013A00087E0F82E08E210E02CE331E04FE050E057
:1013B0006CED70E086E993E00E94DF0C85EF90E031
:1013C0009093A3038093A20389E190E09093A503F7
:1013D0008093A40380EE97E09093A9038093A803E1
:1013E0009093A7038093A60383E08093AA0380933E
:1013F000AB038FE292E01F910F91FF90EF900C945E
:1014000041191F910F91FF90EF9008951F920F9235
:101410000FB60F921124EF92FF920F931F932F9309
:101420003F934F935F936F937F938F939F93AF936C
:10143000BF93CF93DF93EF93FF93809164029091DA
:101440006502019690936502809364028091640224
:10145000909165024497C1F4109265021092640263
:1014600080919B02811110C0E12CF12C0EE110E063
:1014700027E330E045EA50E06AEF70E086E993E068
:101480000E94B41A0E94E007329B13C0809163024D
:10149000811104C081E0809363021AC180916202CD
:1014A0008C3308F017C1809162028F5F80936202D3
:1014B00011C11092630280916202882309F40AC16B
:1014C000809162028F30D8F080919B0281110DC013
:1014D00080919A02811104C081E080939A0202C037
:1014E00010929A020E946109F3C0809166028130D5
:1014F00051F080916602823009F0EAC004C0809108
:101500009B02811103C00E94A307E2C0C0919B020D
:10151000C13009F0DDC0809166028111BEC08091AA
:10152000670281113DC0109269021092680260E06A
:1015300070E086E993E00E94AB0D0E946D07EE24F7
:10154000EA94FE2C08EC10E024E031E044E150E0A5
:101550006EE170E086E993E00E94DF0C85E590E0A3
:101560009093A3038093A2038EE190E09093A50350
:101570008093A4038FEF9FEF9093A9038093A80318
:101580009093A7038093A60382E08093AA0380939D
:10159000AB0383E392E00E9441190E9444033CC0E4
:1015A000809167028130D9F560E070E086E993E0D0
:1015B0000E94AB0D0E946D07EE24EA94FE2C08EC0D
:1015C00010E024E031E044E150E06EE170E086E9B3
:1015D00093E00E94DF0C8BE490E09093A303809350
:1015E000A2038EE190E09093A5038093A4038FEF74
:1015F0009FEF9093A9038093A8039093A7038093F0
:10160000A603C2E0C093AA03C093AB0380E492E0B8
:101610000E9441190E945C13C093660259C08091D8
:101620006702823019F58AE8E82E82E0F82E08E792
:1016300012E0C0E0D0E0F7016081F2E0EF0EF11CB3
:10164000CE010E94C322F80160810E5F1F4FCE01C0
:101650000A960E94C3222196C830D10561F7609195
:10166000750284E190E00E94C32232C0809167023B
:10167000833071F51092670260E070E086E993E0D4
:101680000E94AB0D10929B020E9461090E94E40827
:101690000E94E007109266021BC0809166028130B2
:1016A000B9F4809168028F5F80936802809168022C
:1016B000823060F010926802809169028F5F80939F
:1016C0006902809161028F5F809361020E944403EE
:1016D00010926202309B13C080916002811104C09D
:1016E00081E0809360029EC080915F028C3308F09D
:1016F0009BC080915F028F5F80935F0295C01092C4
:10170000600280915F02882309F48EC080919B0261
:10171000813009F087C08091660281110FC08091ED
:10172000670291E0980F90936702833011F4109252
:101730006702809167020E94D80674C08091660299
:10174000813009F053C080916802811107C0E09197
:101750006902EE0FFF0BE657FD4F0AC08091680249
:10176000813059F4E0916902EE0FFF0BE858FD4F0C
:1017700080819181019691838083E0916902EE0FCF
:10178000FF0BE657FD4F80819181489750F0E09123
:101790006902EE0FFF0BE657FD4F87E190E0918362
:1017A0008083E0916902EE0FFF0BE858FD4F8081C6
:1017B0009181CC9750F0E0916902EE0FFF0BE85851
:1017C000FD4F8BE390E091838083E12CF12C00EAC4
:1017D00010E026E930E047E350E066E470E086E997
:1017E00093E00E94B41A0E9444031CC080916602D8
:1017F0008230C1F4809175028F5F853608F084E6EF
:1018000080937502E12CF12C00EA10E024EB30E02B
:1018100047E350E066E470E086E993E00E94B41A82
:101820000E945C1310925F02319B15C080915E0292
:10183000811106C081E080935E0210925D0292C029
:1018400080915D028C3308F08DC080915D028F5FC6
:1018500080935D0287C010925E0280915D028823B2
:1018600009F480C010925D0280919B02813009F0E2
:1018700079C080916602882309F474C08091660261
:10188000813009F043C080916802811107C0E09166
:101890006902EE0FFF0BE657FD4F0AC08091680208
:1018A000813059F4E0916902EE0FFF0BE858FD4FCB
:1018B0008081918101979183808380916902E09179
:1018C0006902EE0FFF0BE657FD4F808191814A9729
:1018D000B8F580916902E0916902EE0FFF0BE858BC
:1018E000FD4F80819181CC97A0F5E12CF12C00EA8D
:1018F00010E026E930E047E350E066E470E086E976
:1019000093E00E94B41A0E9444032CC080916602A6
:10191000823041F580917502815080937502E12CEF
:10192000F12C00EA10E024EB30E047E350E066E4FD
:1019300070E086E993E00E94B41A0E945C1312C022
:10194000E0916902EE0FFF0BE657FD4F1182108206
:10195000C0CFE0916902EE0FFF0BE858FD4F1182F6
:101960001082C3CFFF91EF91DF91CF91BF91AF91E3
:101970009F918F917F916F915F914F913F912F91A7
:101980001F910F91FF90EF900F900FBE0F901F903F
:1019900018950895FC016370668B8481958126817A
:1019A0003781613039F0633029F091878087338740
:1019B00022870895318720879387828708956F92C1
:1019C0007F928F929F92AF92BF92CF92DF92EF92CF
:1019D000FF920F931F93CF93DF93EC014B015A01BA
:1019E00069013801E881F9810284F385E02D0995C8
:1019F000E881F9810288F389E02D87019601A5012C
:101A0000B401CE010995A501460D571D415051095C
:101A1000E881F9810288F389E02D9601B401CE01B5
:101A20000995E881F9810088F189E02D9301A501EC
:101A3000B401CE010995C80CD91CB60161507109D9
:101A4000E881F9810088F189E02D9301A501CE019B
:101A50000995E881F9810688F789E02DCE01DF91AB
:101A6000CF911F910F91FF90EF90DF90CF90BF909B
:101A7000AF909F908F907F906F9009948F929F92DC
:101A8000AF92BF92CF92DF92EF92FF920F931F938C
:101A9000CF93DF934C016B015A01E901DC01ED9119
:101AA000FC916217730781F40417150724F48B2D3A
:101AB0005801042F182F0A191B0998012F5F3F4F57
:101AC000048CF58DE02D12C04017510709F526173B
:101AD000370724F48D2D6901C62FD82F9E012C19AC
:101AE0003D092F5F3F4F068CF78DE02D8701A50143
:101AF000B601C4010995DF91CF911F910F91FF901D
:101B0000EF90DF90CF90BF90AF909F908F9008950F
:101B10000284F385E02D0995D401ED91FC910488B0
:101B2000F589E02D9E01A501B601C4010995D401F6
:101B3000ED91FC910688F789E02DC401DF91CF91EA
:101B40001F910F91FF90EF90DF90CF90BF90AF90DB
:101B50009F908F900994EF92FF920F931F93DC0157
:101B60001A960D911C911B9718962D913C911997DF
:101B7000ED91FC9100A0F1A1E02D7B0140E050E04F
:101B800060E070E009951F910F91FF90EF9008952C
:101B90004F925F926F927F928F929F92AF92BF927D
:101BA000CF92DF92EF92FF920F931F93CF93DF9329
:101BB0006C012B015A0139014801DC01ED91FC91C6
:101BC0000284F385E02D0995E201640C751CD601B1
:101BD000ED91FC91C615D7055CF40088F189E02DE4
:101BE00087019401A501BE01C60109952196EFCF99
:101BF0000688F789E02DC601DF91CF911F910F91E3
:101C0000FF90EF90DF90CF90BF90AF909F908F901C
:101C10007F906F905F904F9009948F929F92AF92B8
:101C2000BF92CF92DF92EF92FF920F931F93CF93C9
:101C3000DF93EC015B014A016901E881F9810284CB
:101C4000F385E02D099595012C0D3D1D215031099D
:101C5000E881F9810488F589E02D78018401A401E7
:101C6000B501CE010995E881F9810688F789E02D53
:101C7000CE01DF91CF911F910F91FF90EF90DF90F8
:101C8000CF90BF90AF909F908F9009948F929F922A
:101C9000AF92BF92CF92DF92EF92FF920F931F937A
:101CA000CF93DF93EC015B014A0169017801E88180
:101CB000F9810284F385E02D0995C80CD91C8601B1
:101CC00001501109E881F9810488F589E02D950119
:101CD000A401B501CE010995E881F9810688F7894B
:101CE000E02DCE01DF91CF911F910F91FF90EF90EA
:101CF000DF90CF90BF90AF909F908F900994089500
:101D0000EF92FF920F931F93DC01ED91FC9100A0E5
:101D1000F1A1E02D09951F910F91FF90EF9008958B
:101D20000F931F93DC01ED91FC91068CF78DE02D54
:101D300009951F910F9108950F931F93DC01ED9169
:101D4000FC91048CF58DE02D09951F910F9108955C
:101D5000DC01ED91FC910084F185E02D09942F9236
:101D60003F924F925F926F927F928F929F92AF922B
:101D7000BF92CF92DF92EF92FF920F931F93CF9378
:101D8000DF9300D000D000D0CDB7DEB72C017E832A
:101D90006D836A015901C801FC82EB824801841AF3
:101DA000950A97FE03C091948194910835012D8185
:101DB0003E81621A730A77FE03C0719461947108C0
:101DC000681479045CF43A2D2B2D5C01832F922F3B
:101DD0003D812E81DE82CD82C32ED22EAD81BE8189
:101DE000AA16BB065CF43C2D2D2D6C01832F922F7F
:101DF0003D812E81BE82AD82A32EB22E85012D8122
:101E00003E81021B130B1C012C183D0837FE03C03A
:101E1000319421943108780117FF03C03FEFE31A92
:101E2000F30AF594E794C816D9062CF08FEF9FEFCC
:101E30009A83898304C0A1E0B0E0BA83A9832D818D
:101E40003E81A216B30624F1D201ED91FC910484E7
:101E5000F585E02D2B813C816814790424F44D81B3
:101E60005E81B60103C0A6016D817E81C201099524
:101E7000E218F308F7FE06C029813A81C20ED31E8C
:101E8000E00EF11E8D819E8101969E838D83D7CFBA
:101E900026960FB6F894DEBF0FBECDBFDF91CF916F
:101EA0001F910F91FF90EF90DF90CF90BF90AF9078
:101EB0009F908F907F906F905F904F903F902F906A
:101EC0000895089580E090E008951F93CF93DF93E5
:101ED000EC01162FE881F9810284F385E02D099544
:101EE000112311F06DAD01C06EADCE010E945E1EDA
:101EF000E881F9810688F789E02DCE01DF91CF9145
:101F00001F9109948F929F92AF92BF92CF92DF92CE
:101F1000EF92FF920F931F93CF93DF935C014B01DE
:101F20006A01E90177FD53C0DC0118968D919C91FF
:101F30001997681779070CF04AC0209709F447C031
:101F400037FF07C0C9010196C80ED91ED195C195AA
:101F5000D109F50182859385C816D906C4F5A60175
:101F60004C0F5D1F9A012150310937FD30C0D7FE5B
:101F700003C0EA01C12CD12C281739071CF0EC0151
:101F8000CC19DD09D501ED91FC910284F385E02D9A
:101F9000C501099578018E0121E030E0A601B40168
:101FA000C5010E94061AD501ED91FC910688F789BA
:101FB000E02DC501DF91CF911F910F91FF90EF9020
:101FC000DF90CF90BF90AF909F908F900994DF915A
:101FD000CF911F910F91FF90EF90DF90CF90BF9026
:101FE000AF909F908F9008958F929F92AF92BF92E3
:101FF000CF92DF92EF92FF920F931F93CF93DF93D5
:102000005C016B014A01E90157FD53C0DC011A96DE
:102010008D919C911B97481759070CF04AC0209747
:1020200009F447C037FF07C0C9010196C80ED91E81
:10203000D195C195D109F50180859185C816D9063C
:10204000C4F5A6014C0F5D1F9A012150310937FDDF
:1020500030C0D7FE03C0EA01C12CD12C28173907A4
:102060001CF0EC01CC19DD09D501ED91FC91028445
:10207000F385E02DC5010995780101E010E09E018E
:10208000A401B601C5010E94061AD501ED91FC918B
:102090000688F789E02DC501DF91CF911F910F913F
:1020A000FF90EF90DF90CF90BF90AF909F908F9078
:1020B0000994DF91CF911F910F91FF90EF90DF90E6
:1020C000CF90BF90AF909F908F900895EF92FF9226
:1020D0000F931F93CF93DF9377FD34C0DC011896E5
:1020E000ED91FC9119976E177F0764F52115310565
:1020F00049F137FF07C0F90131964E0F5F1F319547
:1021000021953109DC011A96ED91FC911B974E1730
:102110005F07C4F4EA01C20FD31FDE011197B7FDB8
:1021200011C057FF03C09E0140E050E0AE17BF074B
:102130001CF09F01241B350B7801890121E030E060
:102140000E94061ADF91CF911F910F91FF90EF909F
:102150000895EF92FF920F931F93CF93DF9357FD54
:1021600033C0DC011A96ED91FC911B974E175F0767
:102170005CF52115310541F137FF07C0F9013196B2
:102180006E0F7F1F319521953109DC011896ED9175
:10219000FC9119976E177F07BCF4EB01C20FD31F98
:1021A000DE011197B7FD10C077FF03C09E0160E00C
:1021B00070E0AE17BF071CF09F01261B370B78019C
:1021C00001E010E00E94061ADF91CF911F910F915C
:1021D000FF90EF9008958F929F92AF92BF92CF920F
:1021E000DF92EF92FF920F931F93CF93DF934701FC
:1021F0002115310509F44DC00115110509F449C037
:1022000037FF07C0F90131966E0F7F1F3195219579
:102210003109DC011896AD90BC9019976A157B05C1
:10222000C4F517FF07C0F80131964E0F5F1F1195D7
:1022300001951109DC011A96ED91FC911B974E173F
:102240005F073CF56B01C20ED31EE6012197D7FD57
:1022500020C07A01E00EF11ED7011197B7FD19C019
:1022600077FF03C0960160E070E057FF03C087016D
:1022700040E050E0CA15DB051CF09501261B370B2A
:10228000AE17BF071CF08F01041B150B74010E94D1
:10229000061ADF91CF911F910F91FF90EF90DF9081
:1022A000CF90BF90AF909F908F900895EF92FF9244
:1022B0000F931F932115310529F00115110511F018
:1022C0000E94B41A1F910F91FF90EF900895AF9262
:1022D000BF92CF92DF92EF92FF920F931F93CF9313
:1022E000DF93EC0177FD38C08885998568177907F9
:1022F0009CF557FD31C08A859B854817590764F5C1
:1023000069017A015B01E881F9810284F385E02D9E
:10231000CE010995E881F98102A4F3A5E02D01E041
:1023200010E021E030E0A701B501CE010995B6012A
:10233000CE010E94181EE881F9810688F789E02DF8
:10234000CE01DF91CF911F910F91FF90EF90DF9021
:10235000CF90BF90AF900994DF91CF911F910F91D3
:10236000FF90EF90DF90CF90BF90AF900895EF92E5
:10237000FF920F931F93CF93DF93EC0177FD22C061
:102380008885998568177907ECF457FD1BC08A8505
:102390009B8548175907B4F47901E881F98102A4B3
:1023A000F3A5E02D01E010E021E030E0CE01099539
:1023B000B701CE01DF91CF911F910F91FF90EF9068
:1023C0000C94181EDF91CF911F910F91FF90EF9009
:1023D00008958F929F92AF92CF92EF92FF920F93B8
:1023E0001F93CF93DF93EC01262F898D9A8D009751
:1023F00009F042C06A3059F41D861C862D898E85ED
:102400009F8538E0239F800D911D112443C06D30BE
:1024100009F4AAC08F898823C9F03C898C859D85E1
:1024200046E0349F800D911D112448855985481739
:10243000590764F41D861C863D898E859F8548E07A
:10244000349F800D911D11249F878E87EA88FB8819
:10245000088919894E855F856C857D85AD88CC8816
:10246000CE010E944E142C898C859D8536E0239FD9
:10247000800D911D11243EC06A3079F41D861C86A2
:102480002D89FC013696E4918E859F852E9F800DC7
:10249000911D11249F878E8767C06D3009F464C039
:1024A000FC0134963491631708F45EC03196E491D0
:1024B000E61708F459C0462F431B342FFC0132960F
:1024C0008590949047E0349F800C911C1124F40176
:1024D000329634913196E491332311F0E1110DC01D
:1024E000F4013496E4912C898C859D85E29F800DC2
:1024F000911D11249D878C8737C0F4013596449136
:102500005F89552319F15C89E32FF0E0E40FF11D99
:1025100047FDFA955E9FB0015F9F700D11244C85B9
:102520005D85460F571F688579856417750774F4B4
:102530001D861C863D89FC013696E4918E859F851B
:102540003E9F800D911D11249F878E87EA88FB880E
:10255000088919894E855F856C857D85AD88CC8815
:10256000CE010E944E14BCCF81E090E0DF91CF916C
:102570001F910F91FF90EF90CF90AF909F908F9011
:102580000895FC0185A9811105C06EBD0DB407FE3B
:10259000FDCF08958130E1F488E0A1A1B2A12C9192
:1025A00067FF03C095A1922B02C096A192239C9332
:1025B000A3A1B4A12C9197A1922B9C93660FA3A1E8
:1025C000B4A12C9190A592239C93815031F708954A
:1025D000A78DB0A16C93CF010C940A1EFC0185A9B4
:1025E000811104C091A182A19CBD8DBD0895CF939E
:1025F000DF93EC010E94EE128FA987FD06C0EB8DE0
:10260000FC8D90818AA989238083DF91CF910895E1
:102610000895FC0187A987FD06C0A38DB48D9C9108
:1026200081A9892B8C9308951F920F920FB60F9258
:1026300011248F9380916D028F5F80936D02809142
:102640006C0280916D02811105C080916C02109224
:10265000B20022C080916C0280916D028823E1F06B
:1026600080916C0280916C028F5F80936C0210925B
:102670006D021092B20080916C02882339F0809133
:102680006C02893018F480916C0206C080916C0253
:10269000893010F010926C028F910F900FBE0F9046
:1026A0001F9018951F920F920FB60F9211240F9042
:1026B0000FBE0F901F901895CF93DF9380917502F6
:1026C000873910F01092750280EE9FEF9093A90366
:1026D0008093A8039093A7038093A6038EE690E0CF
:1026E0009093A3038093A203CBE4D0E0D093A503FF
:1026F000C093A40385E08093AA038093AB03609109
:10270000750270E080E090E04AE00E9466198EEB6E
:1027100090E09093A3038093A203D093A503C0936A
:10272000A4038FE492E0DF91CF910C9441198330A0
:1027300081F028F4813099F08230A1F0089587303B
:10274000A9F08830B9F08430D1F4809180008F7D79
:1027500003C0809180008F7780938000089584B5B6
:102760008F7702C084B58F7D84BD08958091B000BD
:102770008F7703C08091B0008F7D8093B000089563
:102780003FB7F8948091D5029091D602A091D702DC
:10279000B091D80226B5A89B05C02F3F19F001962D
:1027A000A11DB11D3FBFBA2FA92F982F8827820FD7
:1027B000911DA11DB11DBC01CD0142E0660F771F27
:1027C000881F991F4A95D1F70895CF92DF92EF9213
:1027D000FF920F931F93CF93DF936C017A018B01CC
:1027E000C0E0D0E0CE15DF0581F0D8016D918D01FC
:1027F000D601ED91FC910190F081E02DC601099583
:10280000892B11F02196EECF7E01C701DF91CF9188
:102810001F910F91FF90EF90DF90CF900895CF938D
:10282000DF93D82FC92F6FEF89ED92E00E949A1D98
:102830006FEF89ED92E00E949A1D6EEF89ED92E0B4
:102840000E949A1D85E090E00E94481883E090E085
:102850000E94481880E290E00E9448186D2F89ED90
:1028600092E00E949A1D6C2F89ED92E00E949A1DC1
:1028700066E26D0F6C0F609589ED92E0DF91CF916C
:102880000C949A1D0E94342689ED92E00E94BF1B91
:1028900021E0892B09F420E0822F08952F923F92A6
:1028A0004F925F926F927F928F929F92AF92BF9260
:1028B000CF92DF92EF92FF920F931F93CF93DF930C
:1028C000CDB7DEB76B970FB6F894DEBF0FBECDBFA6
:1028D0009B8F8A8F1B014A01D22E198708873701E7
:1028E000A982DC0159962D913C915A972115310509
:1028F00009F0FFC018968D919C9119976817790778
:102900000CF0E7C11A968D919C911B9748175907B7
:102910000CF0DFC1EC2DF0E0FB83EA839B0146E085
:10292000C49E200D311D11243D872C8712161306DD
:102930000CF0CFC16A2D70E07B876A8783E0660F59
:10294000771F8A95E1F77F876E87CB01880D991DE8
:10295000181619060CF0BDC158968C91811104C04F
:102960008FEA8D1508F4D394AA8DBB8DED91FC915F
:1029700011970284F385E02DCD010995B5E0DB9E2A
:10298000C0011124EC2DF0E0F98BE88B91012B5F55
:102990003F4F3B8B2A8B3D822C822101AC01421997
:1029A00053095D8B4C8B7981672F70E07F8B6E8B29
:1029B000C4010896998F888FEC89FD89E40DF51D77
:1029C000E057FF4FD49054019F828E82D0FE16C0F4
:1029D000AA8DBB8DED91FC91B1E0CB1209C029818C
:1029E000213031F40484F585E02D2885398519C01E
:1029F0000684F785E02DE884F9841DC04885598553
:102A00004615570519F1AA8DBB8DED91FC91B1E0EA
:102A1000CB120DC02981213051F40484F585E02DBD
:102A20009301A501B2018A8D9B8D09950FC0068483
:102A3000F785E02D73010A851B852A813B814E8134
:102A40005F816C817D818A8D9B8D0995D6943FEF46
:102A5000A31AB30A4E815F816E897F89460F571F83
:102A60005F834E83888D998DA816B90609F0AECF85
:102A70009FEF491A590AAC81BD81E889F989AE0FE7
:102A8000BF1FBD83AC832A893B894216530609F0D8
:102A900093CF488559854615570509F4F8C0AA8D86
:102AA000BB8DED91FC91B1E0CB1211C02981213099
:102AB00071F4B1016B5F7F4F0088F189E02D8301D4
:102AC00028E030E0A4018A8D9B8D0995E0C06C85DB
:102AD0007D854A815B81641B750B0684F785E02D3B
:102AE00073010E851F859A01A4018A8D9B8D09951E
:102AF000CEC0F9013496E491DE1AF901329685913F
:102B00009491B7E0DB9E800D911D1124F901259170
:102B100034913B8B2A8BFC01259134915901FC01A6
:102B200032965490319634913C8732967490319617
:102B3000149141E04C1518F05981523068F0672D1E
:102B4000072C000C770B7D836C83812F012E000CEA
:102B5000990B9B838A8304C01B821A821D821C826C
:102B6000AA8DBB8DED91FC9111970284F385E02D28
:102B7000CD010995412CD12C612CF981EF2FF0E08A
:102B8000FF83EE832C2D30E03B872A87A401410F81
:102B9000511D17FD5A955F8B4E8BB101670D711D4D
:102BA00077FC7A95798F688F7C85671608F06FC0FF
:102BB000262D30E04A815B81420F531FAE81BF81D9
:102BC000A49FC001A59F900DB49F900D1124F40106
:102BD000E80FF91FF98BE88B842D712C4E895F89E2
:102BE000420F531F5D8B4C8B751408F04DC051E0A4
:102BF000580F5E87877041F4C5010196EA89FB8909
:102C0000EA0DFB1DD4905C01D7FE3AC061E0C6120C
:102C100016C07981713099F4AA8DBB8DED91FC912C
:102C200011970484F585E02D288539854C895D89C7
:102C3000688D798D670D711DCD01099521C08C813D
:102C40009D81870D911DEA85FB858E9FB0018F9F29
:102C5000700D9E9F700D1124620D731DAA8DBB8D8A
:102C6000ED91FC9111970684F785E02DE884F984B5
:102C70000E811F812A853B8548895989CD01099597
:102C8000DD0C73948E85B0CF450C63948DCFAA8DE7
:102C9000BB8DED91FC9111970688F789E02DCD0150
:102CA0006B960FB6F894DEBF0FBECDBFDF91CF910C
:102CB0001F910F91FF90EF90DF90CF90BF90AF905A
:102CC0009F908F907F906F905F904F903F902F904C
:102CD00009946B960FB6F894DEBF0FBECDBFDF919F
:102CE000CF911F910F91FF90EF90DF90CF90BF9009
:102CF000AF909F908F907F906F905F904F903F909C
:102D00002F900895CF93DF93282F30E0F901E458F6
:102D1000FF4F8491F901E057FA4FD491F901E25540
:102D2000FA4FC491CC2391F081110E949713EC2F9C
:102D3000F0E0EE0FFF1FEE58FF4FA591B491EC911C
:102D4000ED2381E090E021F480E002C080E090E09B
:102D5000DF91CF9108951F93CF93DF93282F30E019
:102D6000F901E458FF4F8491F901E057FA4FD491EB
:102D7000F901E255FA4FC491CC23C1F0162F81110D
:102D80000E949713EC2FF0E0EE0FFF1FEC55FA4F67
:102D9000A591B4919FB7F894111104C08C91D0956E
:102DA000D82302C0EC91DE2BDC939FBFDF91CF9143
:102DB0001F9108950F931F93CF93DF93182F062F22
:102DC000CBE8D3E060E08A810E94AB1661E08881A5
:102DD0000E94AB16812F880F80680E947618802F82
:102DE0000E94761860E08881DF91CF911F910F914A
:102DF0000C94AB16CF93DF9390E0FC01E057FA4FB1
:102E00002491FC01E255FA4F8491882361F190E00E
:102E1000880F991FFC01E859FF4FC591D491FC011F
:102E2000EC55FA4FA591B491611109C09FB7F89480
:102E30008881209582238883EC912E230BC06230F9
:102E400061F49FB7F8948881322F3095832388836B
:102E5000EC912E2B2C939FBF06C08FB7F894E8817E
:102E60002E2B28838FBFDF91CF9108958F929F9251
:102E7000AF92BF92CF92DF92EF92FF926B017C01F3
:102E80000E94C0134B015C01C114D104E104F104A0
:102E9000F1F00E94C013DC01CB0188199909AA093D
:102EA000BB09883E9340A105B10570F321E0C21A29
:102EB000D108E108F10888EE880E83E0981EA11C75
:102EC000B11CC114D104E104F10419F7DDCFFF9066
:102ED000EF90DF90CF90BF90AF909F908F9008952C
:102EE0001F920F920FB60F9211242F933F938F933F
:102EF0009F93AF93BF938091D1029091D202A09102
:102F0000D302B091D4023091D00223E0230F2D37A9
:102F100020F40196A11DB11D05C026E8230F0296DD
:102F2000A11DB11D2093D0028093D1029093D202B3
:102F3000A093D302B093D4028091D5029091D6028F
:102F4000A091D702B091D8020196A11DB11D809326
:102F5000D5029093D602A093D702B093D802BF9126
:102F6000AF919F918F913F912F910F900FBE0F9036
:102F70001F9018951F920F920FB60F9211242F9346
:102F80003F934F935F936F937F938F939F93AF93F1
:102F9000BF93EF93FF9389ED92E00E94781DFF911C
:102FA000EF91BF91AF919F918F917F916F915F91C1
:102FB0004F913F912F910F900FBE0F901F9018953A
:102FC0001F920F920FB60F9211242F938F939F93FE
:102FD000EF93FF93E091E902F091EA028081E091A2
:102FE000EF02F091F00282FD12C090818091F20216
:102FF0008F5F8F732091F302821751F0E091F202FC
:10300000F0E0E752FD4F958F8093F20201C080817E
:10301000FF91EF919F918F912F910F900FBE0F9085
:103020001F901895FF920F931F93CF93DF93F82E65
:10303000062FC7E0D0E010E061E0802F0E94AB16C1
:103040008F2D0E9482160C2E01C0880F0A94EAF779
:10305000182B60E0802F0E94AB16219768F7812F14
:10306000DF91CF911F910F91FF900895009769F024
:10307000FC0101900020E9F73197AF01481B590B83
:10308000BC0186E993E00C94E51380E090E008959C
:10309000682F89ED92E00C949A1D1F93CF93DF93D4
:1030A00060E080918C030E94FA1610E0C0E0D0E04E
:1030B00080918C030E94821699270C2E01C0880FE4
:1030C0000A94EAF7182B61E080918D030E94AB16F9
:1030D00060E080918D030E94AB162196C830D10527
:1030E00039F7812FDF91CF911F910895EF92FF92D1
:1030F0000F931F93CF93DF93082F61E080918C0390
:103100000E94FA16F0908D03E0908C03C0E0D0E0AE
:1031100010E0B8010C2E02C0759567950A94E2F78D
:1031200061708E2D0E94AB1661E08F2D0E94AB1650
:1031300060E08F2D0E94AB162196C830D10549F76B
:10314000DF91CF911F910F91FF90EF900895EF9233
:10315000FF920F931F93CF93DF93CDB7DEB72897DE
:103160000FB6F894DEBF0FBECDBF60E080918D0337
:103170000E94AB1661E080918B030E94AB168FEB2F
:103180000E9476180EE813E086E9E82E83E0F82E18
:103190000E944D18F80181938F01EE16FF06C1F7CA
:1031A00060E080918B030E94AB1680918E03482FC4
:1031B0004695469546954E70942F990F990F490F55
:1031C0008F70480F80918F03382F3695369536953E
:1031D0003E70932F990F990F390F8F70380F809190
:1031E0009003282F2F7087FF08C085FB992790F93F
:1031F000FCE09F9F200D112409C080738695869561
:103200008695982F990F990F890F280F6091910338
:1032100070919203E091930380919403562F5695F9
:10322000569556955E70952F990F990F590F6F709F
:10323000560F672F6695669566956E70962F990F57
:10324000990F690F7F70670F982F92959F708F70FD
:103250007AE0979F800D112490E08053984F9F83D0
:103260008E83782F8F819E2F28960FB6F894DEBF1D
:103270000FBECDBFDF91CF911F910F91FF90EF90C7
:1032800008950C943618CF93DF93CDB7DEB7289707
:103290000FB6F894DEBF0FBECDBF0E94A7189150A5
:1032A000973048F4E92FF0E0EE0FFF1FEA5FFE4F82
:1032B0008081918102C082E592E028960FB6F89451
:1032C000DEBF0FBECDBFDF91CF9108958F929F9249
:1032D000AF92BF920F931F93CF93DF93CDB7DEB71B
:1032E000A1970FB6F894DEBF0FBECDBF19A2423032
:1032F00008F44AE08E010F5D1F4F842E912CA12C03
:10330000B12CA50194010E94AE24E62FB901CA0197
:1033100001501109EA3014F4E05D01C0E95CD80104
:10332000EC93232B242B252B61F7C8010E94361820
:10333000A1960FB6F894DEBF0FBECDBFDF91CF913F
:103340001F910F91BF90AF909F908F900895BC01F7
:1033500080E090E04AE00C946619FF920F931F936F
:10336000CF93DF93809181030E948216892BD1F73E
:1033700060918003809181030E941218C82F609190
:103380008003809181030E941218D82F60918003DE
:10339000809181030E941218F82E00E010E08091C5
:1033A000820390E00817190768F461E080918003B8
:1033B0000E94AB1660E0809180030E94AB160F5F05
:1033C0001F4FEDCF8D2F90E0A0E0B0E0BA2FA92FD6
:1033D000982F8827AC2BAC01BD014F298C2F880F6B
:1033E000880B90E0A0E0B0E0B82FAA2799278827A3
:1033F0008A019B01082B192B2A2B3B2BC901B801F1
:10340000DF91CF911F910F91FF9008958F929F921E
:10341000AF92BF92CF92DF92EF92FF920F931F93E2
:10342000CF93DF93EC014901BE2CAF2CE881F981E9
:1034300002A4F3A5E02D09959401D8010E94EF2480
:10344000611571058105910509F481C02DA921112E
:103450000FC0615071098109910908F478C0AEBCB0
:103460000DB407FEFDCFBEBC0DB407FEFDCFF1CFFE
:10347000213009F03FC0615071098109910908F4B8
:1034800066C03A2D28E0E9A1FAA1508137FF03C0B8
:103490004DA1452B02C04EA145234083EBA1FCA1C9
:1034A00050814FA1452B4083EBA1FCA1508148A541
:1034B00045234083330F215031F73B2D28E0E9A10C
:1034C000FAA1508137FF03C04DA1452B02C04EA188
:1034D00045234083EBA1FCA150814FA1452B4083A4
:1034E000EBA1FCA1508148A545234083330F215017
:1034F00031F7C1CFFE1017C0EF8DF8A1F0826B013C
:103500007C01CC0CDD1CEE1CFF1CC114D104E104B9
:10351000F104E9F0CE010E940A1E81E0C81AD10828
:10352000E108F108F2CF6B017C01EF8DF8A1A082D8
:10353000CE010E940A1EEF8DF8A1B082CE010E943A
:103540000A1E21E0C21AD108E108F10871F7DF91E3
:10355000CF911F910F91FF90EF90DF90CF90BF9090
:10356000AF909F908F9008958F929F92AF92BF924D
:10357000CF92DF92EF92FF920F931F93CF93DF933F
:103580004C01EB016A01590137FF07C0C9010196DF
:10359000C80FD91FB194A194B108F401A085B185D9
:1035A000CA17DB070CF058C017FF07C0C801019607
:1035B000C80ED91E119501951109F40182859385D4
:1035C000C816D9060CF048C0FE01EA0DFB1DAF017C
:1035D0004150510957FD40C0B601600F711F9B015A
:1035E0002150310937FD38C0D7FF03C05F01C0E06B
:1035F000D0E0D7FE03C08B01C12CD12C4A175B074A
:103600001CF05D01AC1ABD0A281739071CF08C01AB
:103610000C191D09D401ED91FC910284F385E02D74
:10362000C40109959501A601BE01C4010E94061AB4
:10363000D401ED91FC910688F789E02DC401DF915A
:10364000CF911F910F91FF90EF90DF90CF90BF909F
:10365000AF909F908F900994DF91CF911F910F9120
:10366000FF90EF90DF90CF90BF90AF909F908F90A2
:103670000895CF92DF92EF92FF920F931F93CF9313
:10368000DF93EC01162F6A01E22E0E94EE128FA941
:1036900087FD06C0EB8DFC8D90818AA989238083EC
:1036A000ED8DFE8D90818CA989238083612FCE01C1
:1036B0000E94C112ED8DFE8D90818BA9892B808394
:1036C0008601F12CC8018C199D098E159F053CF4CB
:1036D000F80161918F01CE010E94C112F3CF8FA931
:1036E00087FD06C0EB8DFC8D908189A9892B808395
:1036F0008DA981110AC0DF91CF911F910F91FF9089
:10370000EF90DF90CF900C940813DF91CF911F9131
:103710000F91FF90EF90DF90CF900895FC01538DB3
:10372000448D252F30E0842F90E0821B930B54179B
:1037300010F0CF96089501970895FC01918D828D28
:10374000981761F0828DDF01A80FB11D5D968C91F5
:10375000928D9F5F9F73928F90E008958FEF9FEF00
:103760000895FC01918D828D981731F0828DE80FBC
:10377000F11D858D90E008958FEF9FEF0895FC0176
:10378000918D228D892F90E0805C9F4F821B910943
:103790008F739927089580E090E0892B29F00E948B
:1037A000441481110C94000008950C94AB25611110
:1037B00002C060E201C061E220E040E050E00C9411
:1037C000391BCF93DF931F92CDB7DEB7FC01637037
:1037D000668B623041F0633079F0613011F088E43B
:1037E00003C088E20AC088E8898380EF90E091876F
:1037F000808780E491E008C088EE898380E491E0CE
:103800009187808780EF90E09387828721E0AE01E7
:103810004F5F5F4F66E3CF010E94391B0F90DF912E
:10382000CF910895BF92CF92DF92EF92FF920F93C4
:103830001F93CF93DF93EC016A017B01452B462B4D
:10384000472B31F4C12C42E1D42E4AE7E42EF12C6F
:103850008FA987FD07C061E00E94FA1661E08FA979
:103860000E94AB1661E088AD0E94FA1661E088AD57
:103870000E94AB168DA9811152C040E052E16AE767
:1038800070E090E0C416D506E606F70640F476959B
:103890006795579547959F5F9630A1F797E081E030
:1038A0008927982F906A969599A381708AA31BA265
:1038B0001CA21DA21EA21FB7F8948091DC038111E7
:1038C00027C0E8EBF5E08491EAE9F5E09491E82F70
:1038D000F0E0EE0FFF1FE859FF4FA591B491EC9176
:1038E000E92321F461E08AE00E94AB1661E08AE0FE
:1038F0000E94FA168CB580618CBD8CB580648CBD3D
:1039000061E08DE00E94FA1661E08BE00E94FA16F9
:103910008091DC038F5F8093DC031FBF4BC081303D
:10392000B9F461E08AA50E94FA1660E08AA50E94B7
:10393000AB1661E08CA50E94FA1660E08CA50E948F
:10394000AB168BA587FD36C060E00E94FA1632C028
:103950000EEA15E0F12CF8018491E82FF0E0EE0F6B
:10396000FF1FEC55FA4F859194912F8D38A12817A0
:10397000390741F461E08F2D0E94FA1660E08F2D27
:103980000E94AB16F3940F5F1F4FF4E1FF12E3CFD9
:1039900061E08EA50E94FA1661E08EA50E94AB162A
:1039A0008FA587FD07C061E00E94FA1661E08FA530
:1039B0000E94AB168EA987FD21C061E00E94FA1615
:1039C00061E08EA90E94AB1664E670E080E090E0B2
:1039D0000E94361760E08EA90E94AB1664E670E084
:1039E00080E090E00E94361761E08EA90E94AB163D
:1039F00068EC70E080E090E00E9436178EA987FFA7
:103A00000DC020E040E050E061E0CE010E94391B93
:103A100066E970E080E090E00E94361782ECE82EC4
:103A200085E0F82EC7010196F7011491112309F4DE
:103A30004DC0FC01B4900B2D0F77CE010E94EE1209
:103A40008FA987FD06C0EB8DFC8D90818AA9892303
:103A50008083ED8DFE8D90818CA989238083612FD9
:103A6000CE010E94C112ED8DFE8D90818BA9892B14
:103A70008083C12CD12C10E0C016D10664F4F6016D
:103A80003296EE0DFF1D6491CE010E94C112FFEF30
:103A9000CF1ADF0AF1CF8FA987FD06C0EB8DFC8D11
:103AA000908189A9892B80838DA9811102C00E94F0
:103AB00008130E5F1F4FE00EF11EB7FEB3CF66E98D
:103AC00070E080E090E00E943617ACCF80EF90E08D
:103AD0009987888780E491E09B878A87DF91CF91DF
:103AE0001F910F91FF90EF90DF90CF90BF900895BE
:103AF000FC01848DDF01A80FB11DA35ABF4F2C918B
:103B0000848D90E001968F739927848FA689B78959
:103B10002C93A089B1898C91837080648C93938D50
:103B2000848D981306C00288F389E02D80818F7DF3
:103B300080830895EF92FF920F931F93CF93DF93AB
:103B4000EC0181E0888F9B8D8C8D981305C0E889EE
:103B5000F989808185FD26C0F62E0B8D10E00F5F60
:103B60001F4F0F731127E02E8C8DE8120CC00FB67B
:103B700007FCFACFE889F989808185FFF5CFCE016E
:103B80000E94781DF1CF8B8DFE01E80FF11DE35AE5
:103B9000FF4FF0829FB7F8940B8FEA89FB898081F1
:103BA00080620AC09FB7F894EE89FF896083E88934
:103BB000F98980818370806480839FBF81E090E079
:103BC000DF91CF911F910F91FF90EF900895CF93C8
:103BD000DF93EC01888D8823C9F0EA89FB89808115
:103BE00085FD05C0A889B9898C9186FD0FC00FB6E7
:103BF00007FCF5CF808185FFF2CFA889B9898C9128
:103C000085FFEDCFCE010E94781DE7CFDF91CF91E8
:103C100008950895FC01A5A1B6A19C9182A58923D0
:103C20008C93A5A1B6A19C9181A5892B8C93089515
:103C30000F931F93CF93DF93EC018B018DA981111B
:103C400009C01EBD0DB407FEFDCF0EBD0DB407FEAD
:103C5000FDCF2FC08130E9F480E1E9A1FAA12081F4
:103C600017FF03C09DA1922B02C09EA192239083B7
:103C7000EBA1FCA120819FA1922B9083EBA1FCA141
:103C8000208198A592239083000F111F815029F75E
:103C900010C0EF8DF8A11083CE010E940A1EEF8D97
:103CA000F8A10083CE01DF91CF911F910F910C9469
:103CB0000A1EDF91CF911F910F910895CF93DF934B
:103CC000EC01ED8DFE8D90818CA989238083CE013E
:103CD0000E94C112ED8DFE8D90818BA9892B80836E
:103CE000DF91CF910895AF92BF92CF92DF92EF9282
:103CF000FF920F931F93CF93DF93EC015B016A0157
:103D0000215031097901E60EF71E01501109040F07
:103D1000151F6AE20E945E1EB501CE010E94181EA8
:103D2000B701CE010E94181E6BE2CE010E945E1EFA
:103D3000B601CE010E94181EB801CE010E94181EC5
:103D40006CE2CE01DF91CF911F910F91FF90EF9028
:103D5000DF90CF90BF90AF900C945E1E789484B5A6
:103D6000826084BD84B5816084BD85B5826085BD77
:103D700085B5816085BD80916E00816080936E0005
:103D800010928100809181008260809381008091F7
:103D900081008160809381008091800081608093A8
:103DA00080008091B10084608093B1008091B00068
:103DB00081608093B00080917A00846080937A0063
:103DC00080917A00826080937A0080917A0081608D
:103DD00080937A0080917A00806880937A001092B4
:103DE000C10008E712E07AE8E72E72E0F72EC0E0A3
:103DF000D0E0CE010E94BB2290E0F7018193919325
:103E00007F01CE010A960E94BB2290E0F8018193C7
:103E100091938F012196C830D10559F784E190E044
:103E20000E94BB228093750260E080918D030E9406
:103E3000AB1661E080918B030E94AB1681E80E9473
:103E400076180E944D18C82F60E080918B030E9465
:103E5000AB166C2F6F7780E00E94DA1660E087E087
:103E60000E94DA1640E050E0BA0186E993E00E9431
:103E7000121C61E086E993E00E94E11B60E070E0C3
:103E800086E993E00E94AB0D10929B0210929A0279
:103E90000E9461090E94E4080E94E007E091E902A3
:103EA000F091EA0292E09083E091E502F091E6025F
:103EB0001082E091E702F091E8028FEC808310928B
:103EC000F102E091ED02F091EE0286E08083E09154
:103ED000EB02F091EC02808180618083E091EB0243
:103EE000F091EC02808188608083E091EB02F09198
:103EF000EC02808180688083E091EB02F091EC021B
:103F000080818F7D8083109280008BE08093810080
:103F100090936F0083ED90E39093890080938800E5
:103F20007894CAE0C12CD12C76010E94AD19C60E3E
:103F3000D71EE81EF91EC150C1F7C701B6012AE01D
:103F400030E040E050E00E94D024CA01B9010E9454
:103F5000ED230E94B52360938303709384038093C1
:103F60008503909386036FEF89ED92E00E949A1D7E
:103F70006FEF89ED92E00E949A1D6EEF89ED92E05D
:103F80000E949A1D85E090E00E94481883E090E02E
:103F90000E94481888E090E00E94481880E090E075
:103FA0000E94481880E090E00E94481861EF89ED77
:103FB00092E00E949A1D812C50E4952E5CE1A52E82
:103FC00056ECB52E62E0762E6624639480919B02B7
:103FD00081112CC18092870390928803A09289035B
:103FE000B0928A03C091C402D091C5028E01000F25
:103FF000111F000F111F04561D4FF8012081318140
:10400000428153816091C6027091C7028091C802BB
:104010009091C9020E94D1226B017C010E94AD19CE
:10402000209183033091840340918503509186034E
:10403000621B730B840B950B0E94ED232091870369
:10404000309188034091890350918A030E94432351
:104050009B01AC01F8016083718382839383C70164
:10406000B6010E94D2226093C6027093C702809369
:10407000C8029093C9029E012F5F3F4F2A3031053D
:104080002CF43093C5022093C40204C01092C502E0
:104090001092C40220E030E040E251E40E94432349
:1040A0006B017C01609371027093720280937302C2
:1040B000909374026091CA027091CB02072E000C9B
:1040C000880B990B0E94ED231B012C0120E030E0AE
:1040D00040E450E4C701B6010E94D2229B01AC012A
:1040E000C201B1010E949D24181684F020E030E046
:1040F00040E450E4C701B6010E94D1229B01AC010B
:10410000C201B1010E943E2387FF2CC0C701B60146
:104110000E94B5237093CB026093CA0220E030E086
:1041200040EA50E4C701B6010E943E2387FD0AC061
:1041300020E030E04CED52E4C701B6010E949D241E
:10414000181644F4109271021092720210927302C7
:10415000109274020E94E4086AE070E080E090E04F
:104160000E94361780917002813099F4709270022B
:10417000E12CF12C0EE110E027E330E045EA50E0BD
:104180006EE670E086E993E00E94B41A0E94E007B0
:1041900007C0823029F48091770381111092700258
:1041A00080916F02813099F470926F02E12CF12CB2
:1041B0000EE110E027E330E045EA50E064EB70E008
:1041C00086E993E00E94B41A0E94E00707C082309B
:1041D00029F480917803811110926F029091CC02A2
:1041E00080916E029817A1F0E12CF12C0EE110E005
:1041F0002BE430E045EA50E064E170E086E993E0CA
:104200000E94B41A80916E028093CC020E94E00753
:10421000E12CF12C08E210E024E630E043EC50E021
:1042200063E070E086E993E00E94B41A80919A02FC
:10423000813009F065C008E712E03AE8E32E32E089
:10424000F32EC0E0D0E0F701819191917F01C09001
:104250008802D09089028C159D0579F5F80120819E
:10426000318180917602909177022817390729F5DC
:10427000D093CF02C093CE026091750270E080E0CF
:1042800090E00E94ED2320917102309172024091E2
:104290007302509174020E943E2318161CF0609223
:1042A000CD0207C08091CD02811103C08FE091E063
:1042B00002C080E090E00E940F148091CE029091A5
:1042C000CF02880F991FFC01E657FD4F20813181F5
:1042D000C216D30661F4FC01E858FD4F20813181FC
:1042E00080917602909177022817390711F0109289
:1042F000CD0221960E5F1F4FC830D10509F0A3CF24
:104300000E94CB1B63CECF931092DC021092DB0293
:1043100088EE93E0A0E0B0E08093DD029093DE02AF
:10432000A093DF02B093E00288E191E09093DA027B
:104330008093D90285EC90E09093E6028093E502A9
:1043400084EC90E09093E8028093E70280EC90E0A8
:104350009093EA028093E90281EC90E09093EC0262
:104360008093EB0282EC90E09093EE028093ED025A
:1043700086EC90E09093F0028093EF021092F202AC
:104380001092F3021092F4021092F5028091DA0377
:10439000883030F48F5F8093DA038093DB0302C0B0
:1043A0001092DB03109299031092980320EF30E0F3
:1043B00030939B0320939A0380E491E090939D03B4
:1043C00080939C0330939F0320939E039093A103BB
:1043D0008093A0031092AC031092A3031092A20347
:1043E0001092A5031092A403C1E0C093AB03C09345
:1043F000AA038FEF9FEF9093A9038093A803909354
:10440000A7038093A603C093AD031092AE0310924E
:10441000B0031092AF031092CB038093CC038AE0D9
:104420008093CD0389E08093CE031092D003109245
:10443000CF031092D2031092D1031092D3031092A3
:10444000D4031092D5031092D6031092D703109282
:10445000D80389ED93E09093B6038093B503E7EB1F
:10446000F5E0E491F0E0EE0FFF1FEC55FA4F859177
:1044700094919093B4038093B303E9E9F5E08491B8
:104480008093C903E8EBF5E0E491F0E0EE0FFF1F45
:10449000EC55FA4F259134913093B2032093B10338
:1044A000EAE9F5E0E491E093C703E095E093C803FF
:1044B000E82FE095E093CA0382E391E0909397039D
:1044C0008093960382E080938B0383E080938C0338
:1044D00084E080938D0361E082E00E94FA1661E03F
:1044E00080918D030E94FA168AE291E090937F03F7
:1044F00080937E03109283031092840310928503AD
:104500001092860380E090E0A0E8BFE380938703E9
:1045100090938803A0938903B0938A0383E18093E7
:10452000800382E18093810361E083E10E94FA16B7
:1045300060E0809181030E94FA16C093820360E0DC
:10454000809180030E94AB160E94AD198AED97E01E
:1045500090937C0380937B03C0937A03C093790389
:1045600010927603109277031092780385E080937F
:104570007D03CF910895F999FECF92BD81BDF89A40
:10458000992780B50895262FF999FECF1FBA92BDBD
:1045900081BD20BD0FB6F894FA9AF99A0FBE019624
:1045A00008955058BB27AA270E94E9220C9463243F
:1045B0000E94552438F00E945C2420F039F49F3F7B
:1045C00019F426F40C9452240EF4E095E7FB0C94B5
:1045D0004C24E92F0E94742458F3BA17620773071A
:1045E0008407950720F079F4A6F50C9496240EF430
:1045F000E0950B2EBA2FA02D0B01B90190010C01F3
:10460000CA01A0011124FF27591B99F0593F50F40A
:10461000503E68F11A16F040A22F232F342F442762
:10462000585FF3CF469537952795A795F04053955A
:10463000C9F77EF41F16BA0B620B730B840BBAF02A
:104640009150A1F0FF0FBB1F661F771F881FC2F795
:104650000EC0BA0F621F731F841F48F487957795A9
:104660006795B795F7959E3F08F0B0CF9395880F63
:1046700008F09927EE0F9795879508950E942824B2
:1046800008F481E008950E9457230C9463240E944B
:104690005C2458F00E94552440F029F45F3F29F033
:1046A0000C944C2451110C9497240C9452240E9485
:1046B000742468F39923B1F3552391F3951B550B9B
:1046C000BB27AA2762177307840738F09F5F5F4FE5
:1046D000220F331F441FAA1FA9F335D00E2E3AF024
:1046E000E0E832D091505040E695001CCAF72BD03C
:1046F000FE2F29D0660F771F881FBB1F261737078D
:104700004807AB07B0E809F0BB0B802DBF01FF27BE
:1047100093585F4F3AF09E3F510578F00C944C242B
:104720000C9497245F3FE4F3983ED4F386957795F5
:104730006795B795F7959F5FC9F7880F911D969577
:10474000879597F90895E1E0660F771F881FBB1FD3
:10475000621773078407BA0720F0621B730B840B80
:10476000BA0BEE1F88F7E09508950E94BC23689469
:10477000B1110C94972408950E947C2488F09F57CF
:1047800098F0B92F9927B751B0F0E1F0660F771F75
:10479000881F991F1AF0BA95C9F714C0B13091F06B
:1047A0000E949624B1E008950C949624672F782FE8
:1047B0008827B85F39F0B93FCCF386957795679530
:1047C000B395D9F73EF490958095709561957F4F9C
:1047D0008F4F9F4F0895E89409C097FB3EF4909542
:1047E0008095709561957F4F8F4F9F4F9923A9F0CA
:1047F000F92F96E9BB279395F69587957795679559
:10480000B795F111F8CFFAF4BB0F11F460FF1BC09C
:104810006F5F7F4F8F4F9F4F16C0882311F096E92F
:1048200011C0772321F09EE8872F762F05C06623DD
:1048300071F096E8862F70E060E02AF09A95660F96
:10484000771F881FDAF7880F9695879597F908954F
:10485000990F0008550FAA0BE0E8FEEF1616170691
:10486000E807F907C0F012161306E407F50798F0F9
:10487000621B730B840B950B39F40A2661F0232B12
:10488000242B252B21F408950A2609F4A140A6958E
:104890008FEF811D811D089597F99F6780E870E073
:1048A00060E008959FEF80EC089500240A941616A6
:1048B000170618060906089500240A94121613060E
:1048C000140605060895092E0394000C11F488239C
:1048D00052F0BB0F40F4BF2B11F460FF04C06F5FB8
:1048E0007F4F8F4F9F4F089557FD9058440F551F8E
:1048F00059F05F3F71F04795880F97FB991F61F062
:104900009F3F79F087950895121613061406551FD8
:10491000F2CF4695F1DF08C0161617061806991F44
:10492000F1CF86957105610508940895E894BB2739
:1049300066277727CB0197F908950E94282408F469
:104940008FEF0895991B79E004C0991F961708F01E
:10495000961B881F7A95C9F780950895A1E21A2EB3
:10496000AA1BBB1BFD010DC0AA1FBB1FEE1FFF1F13
:10497000A217B307E407F50720F0A21BB30BE40B63
:10498000F50B661F771F881F991F1A9469F76095AA
:104990007095809590959B01AC01BD01CF01089564
:1049A000052E97FB1EF400940E94E72457FD07D0C4
:1049B0000E94AE2407FC03D04EF40C94E7245095DB
:1049C0004095309521953F4F4F4F5F4F08959095FB
:1049D0008095709561957F4F8F4F9F4F08950E94EE
:1049E000F724332312F48A1B9B0B0C940825A29FF7
:1049F000B001B39FC001A39F700D811D1124911DB3
:104A0000B29F700D811D1124911D08950E94F724FD
:104A1000B7FF0895821B930B0895EE0FFF1F0590BB
:104A2000F491E02D09940F931F93CF93DF9382307D
:104A3000910510F482E090E0E091DF03F091E00353
:104A400020E030E0A0E0B0E0309719F140815181E2
:104A50000281138148175907C8F08417950769F434
:104A6000109731F012960C93129713961C9327C04F
:104A70000093DF031093E00322C02115310519F0E4
:104A80004217530718F49A01BD01EF01DF01F80145
:104A9000DBCF21153105F9F0281B390B2430310506
:104AA00080F48A819B816115710521F0FB0193835C
:104AB000828304C09093E0038093DF03FE0132966B
:104AC00044C0FE01E20FF31F8193919322503109FC
:104AD000398328833AC02091DD033091DE03232BF4
:104AE00041F420910201309103013093DE032093C1
:104AF000DD0320910001309101012115310541F4C0
:104B00002DB73EB74091040150910501241B350B90
:104B1000E091DD03F091DE03E217F307A0F42E1B12
:104B20003F0B2817390778F0AC014E5F5F4F241711
:104B3000350748F04E0F5F1F5093DE034093DD03AF
:104B40008193919302C0E0E0F0E0CF01DF91CF913B
:104B50001F910F910895CF93DF93009709F481C0BF
:104B6000FC01329713821282A091DF03B091E0031F
:104B7000109781F420813181820F931F2091DD03F2
:104B80003091DE032817390751F5F093DE03E093E7
:104B9000DD0367C0ED0120E030E0CE17DF0740F411
:104BA0004A815B819E0141155105F1F0EA01F5CF83
:104BB000D383C28340815181840F951FC817D907C1
:104BC00059F488819981840F951F0296918380837F
:104BD0008A819B81938382832115310529F4F09387
:104BE000E003E093DF033DC0E901FB83EA834991E1
:104BF0005991C40FD51FEC17FD0761F48081918195
:104C0000840F951F0296E90199838883828193819D
:104C10009B838A83E0E0F0E012968D919C9113973C
:104C2000009719F0FD01DC01F7CF8D919C91119750
:104C30009D012E5F3F4F820F931F2091DD03309126
:104C4000DE032817390769F4309729F41092E0033E
:104C50001092DF0302C013821282B093DE03A0938E
:104C6000DD03DF91CF91089581E090E0F8940C94FA
:064C70003926F894FFCF85
:104C76000000E1038000D401DF01EB01F901060227
:104C860011021E02000000009A1DE5138E1BE71D8F
:104C9600BF1B9D1BB11B00000000091ED51B000099
:104CA6000000E911E513620F610F6711F712B711E2
:104CB600EB106610A910AF0E0913E11BD71B820F6C
:104CC600F40F5611AB0D3E0DDF0C121C731E3E2069
:104CD600312E20003A003E20322E20003E20332E78
:104CE60020003E20342E20003E20352E20003E207F
:104CF600362E20003E20372E20003E20382E200063
:104D06003E20312E205345542054494D45003E2027
:104D1600322E2053455420574549474854003E20DB
:104D2600332E2053415645003E20342E2042414327
:104D36004B003E204D454E55203C004E4F572054CB
:104D4600494D45004D6F6E646179004D4F4E0054DC
:104D560075657364617900545545005765646E65E1
:104D660073646179005745440054687572736461D1
:104D76007900544855004672696461790046524983
:104D86000053617475726461790053415400537520
:104D96006E6461790053554E0052454144590052A4
:104DA600554E003E2054494D4520534554203C0065
:104DB6003E2057454947485420534554203C00203F
:0C4DC60067007878787878787878780042
:00000001FF
